{"abi":[{"type":"constructor","inputs":[],"stateMutability":"nonpayable"},{"type":"function","name":"StarknetChainId","inputs":[],"outputs":[{"name":"","type":"uint128","internalType":"uint128"}],"stateMutability":"view"},{"type":"function","name":"StarknetEscrowAddress","inputs":[],"outputs":[{"name":"","type":"uint256","internalType":"uint256"}],"stateMutability":"view"},{"type":"function","name":"StarknetEscrowClaimPaymentBatchSelector","inputs":[],"outputs":[{"name":"","type":"uint256","internalType":"uint256"}],"stateMutability":"view"},{"type":"function","name":"StarknetEscrowClaimPaymentSelector","inputs":[],"outputs":[{"name":"","type":"uint256","internalType":"uint256"}],"stateMutability":"view"},{"type":"function","name":"UPGRADE_INTERFACE_VERSION","inputs":[],"outputs":[{"name":"","type":"string","internalType":"string"}],"stateMutability":"view"},{"type":"function","name":"ZKSyncChainId","inputs":[],"outputs":[{"name":"","type":"uint128","internalType":"uint128"}],"stateMutability":"view"},{"type":"function","name":"ZKSyncEscrowAddress","inputs":[],"outputs":[{"name":"","type":"address","internalType":"address"}],"stateMutability":"view"},{"type":"function","name":"ZKSyncEscrowClaimPaymentBatchSelector","inputs":[],"outputs":[{"name":"","type":"bytes4","internalType":"bytes4"}],"stateMutability":"view"},{"type":"function","name":"ZKSyncEscrowClaimPaymentSelector","inputs":[],"outputs":[{"name":"","type":"bytes4","internalType":"bytes4"}],"stateMutability":"view"},{"type":"function","name":"claimPayment","inputs":[{"name":"orderId","type":"uint256","internalType":"uint256"},{"name":"destAddress","type":"address","internalType":"address"},{"name":"amount","type":"uint256","internalType":"uint256"}],"outputs":[],"stateMutability":"payable"},{"type":"function","name":"claimPaymentBatch","inputs":[{"name":"orderIds","type":"uint256[]","internalType":"uint256[]"},{"name":"destAddresses","type":"address[]","internalType":"address[]"},{"name":"amounts","type":"uint256[]","internalType":"uint256[]"}],"outputs":[],"stateMutability":"payable"},{"type":"function","name":"claimPaymentBatchZKSync","inputs":[{"name":"orderIds","type":"uint256[]","internalType":"uint256[]"},{"name":"destAddresses","type":"address[]","internalType":"address[]"},{"name":"amounts","type":"uint256[]","internalType":"uint256[]"},{"name":"gasLimit","type":"uint256","internalType":"uint256"},{"name":"gasPerPubdataByteLimit","type":"uint256","internalType":"uint256"}],"outputs":[],"stateMutability":"payable"},{"type":"function","name":"claimPaymentZKSync","inputs":[{"name":"orderId","type":"uint256","internalType":"uint256"},{"name":"destAddress","type":"address","internalType":"address"},{"name":"amount","type":"uint256","internalType":"uint256"},{"name":"gasLimit","type":"uint256","internalType":"uint256"},{"name":"gasPerPubdataByteLimit","type":"uint256","internalType":"uint256"}],"outputs":[],"stateMutability":"payable"},{"type":"function","name":"initialize","inputs":[{"name":"snMessaging","type":"address","internalType":"address"},{"name":"StarknetEscrowClaimPaymentSelector_","type":"uint256","internalType":"uint256"},{"name":"StarknetEscrowClaimPaymentBatchSelector_","type":"uint256","internalType":"uint256"},{"name":"marketMaker_","type":"address","internalType":"address"},{"name":"ZKSyncDiamondProxyAddress","type":"address","internalType":"address"},{"name":"ZKSyncEscrowClaimPaymentSelector_","type":"bytes4","internalType":"bytes4"},{"name":"ZKSyncEscrowClaimPaymentBatchSelector_","type":"bytes4","internalType":"bytes4"},{"name":"StarknetChainId_","type":"uint128","internalType":"uint128"},{"name":"ZKSyncChainId_","type":"uint128","internalType":"uint128"}],"outputs":[],"stateMutability":"nonpayable"},{"type":"function","name":"marketMaker","inputs":[],"outputs":[{"name":"","type":"address","internalType":"address"}],"stateMutability":"view"},{"type":"function","name":"owner","inputs":[],"outputs":[{"name":"","type":"address","internalType":"address"}],"stateMutability":"view"},{"type":"function","name":"proxiableUUID","inputs":[],"outputs":[{"name":"","type":"bytes32","internalType":"bytes32"}],"stateMutability":"view"},{"type":"function","name":"renounceOwnership","inputs":[],"outputs":[],"stateMutability":"nonpayable"},{"type":"function","name":"setMMAddress","inputs":[{"name":"newMMAddress","type":"address","internalType":"address"}],"outputs":[],"stateMutability":"nonpayable"},{"type":"function","name":"setStarknetClaimPaymentBatchSelector","inputs":[{"name":"NewStarknetEscrowClaimPaymentBatchSelector","type":"uint256","internalType":"uint256"}],"outputs":[],"stateMutability":"nonpayable"},{"type":"function","name":"setStarknetClaimPaymentSelector","inputs":[{"name":"NewStarknetEscrowClaimPaymentSelector","type":"uint256","internalType":"uint256"}],"outputs":[],"stateMutability":"nonpayable"},{"type":"function","name":"setStarknetEscrowAddress","inputs":[{"name":"newStarknetEscrowAddress","type":"uint256","internalType":"uint256"}],"outputs":[],"stateMutability":"nonpayable"},{"type":"function","name":"setZKSyncEscrowAddress","inputs":[{"name":"newZKSyncEscrowAddress","type":"address","internalType":"address"}],"outputs":[],"stateMutability":"nonpayable"},{"type":"function","name":"setZKSyncEscrowClaimPaymentBatchSelector","inputs":[{"name":"NewZKSyncEscrowClaimPaymentBatchSelector","type":"bytes4","internalType":"bytes4"}],"outputs":[],"stateMutability":"nonpayable"},{"type":"function","name":"setZKSyncEscrowClaimPaymentSelector","inputs":[{"name":"NewZKSyncEscrowClaimPaymentSelector","type":"bytes4","internalType":"bytes4"}],"outputs":[],"stateMutability":"nonpayable"},{"type":"function","name":"transfer","inputs":[{"name":"orderId","type":"uint256","internalType":"uint256"},{"name":"destAddress","type":"address","internalType":"address"},{"name":"chainId","type":"uint128","internalType":"uint128"}],"outputs":[],"stateMutability":"payable"},{"type":"function","name":"transferOwnership","inputs":[{"name":"newOwner","type":"address","internalType":"address"}],"outputs":[],"stateMutability":"nonpayable"},{"type":"function","name":"transfers","inputs":[{"name":"","type":"bytes32","internalType":"bytes32"}],"outputs":[{"name":"","type":"bool","internalType":"bool"}],"stateMutability":"view"},{"type":"function","name":"upgradeToAndCall","inputs":[{"name":"newImplementation","type":"address","internalType":"address"},{"name":"data","type":"bytes","internalType":"bytes"}],"outputs":[],"stateMutability":"payable"},{"type":"event","name":"ClaimPayment","inputs":[{"name":"orderId","type":"uint256","indexed":true,"internalType":"uint256"},{"name":"destAddress","type":"address","indexed":false,"internalType":"address"},{"name":"amount","type":"uint256","indexed":false,"internalType":"uint256"},{"name":"chainId","type":"uint128","indexed":false,"internalType":"uint128"}],"anonymous":false},{"type":"event","name":"ClaimPaymentBatch","inputs":[{"name":"orderIds","type":"uint256[]","indexed":false,"internalType":"uint256[]"},{"name":"destAddresses","type":"address[]","indexed":false,"internalType":"address[]"},{"name":"amounts","type":"uint256[]","indexed":false,"internalType":"uint256[]"},{"name":"chainId","type":"uint128","indexed":false,"internalType":"uint128"}],"anonymous":false},{"type":"event","name":"Initialized","inputs":[{"name":"version","type":"uint64","indexed":false,"internalType":"uint64"}],"anonymous":false},{"type":"event","name":"ModifiedStarknetClaimPaymentBatchSelector","inputs":[{"name":"newEscrowClaimPaymentBatchSelector","type":"uint256","indexed":false,"internalType":"uint256"}],"anonymous":false},{"type":"event","name":"ModifiedStarknetClaimPaymentSelector","inputs":[{"name":"newEscrowClaimPaymentSelector","type":"uint256","indexed":false,"internalType":"uint256"}],"anonymous":false},{"type":"event","name":"ModifiedStarknetEscrowAddress","inputs":[{"name":"newEscrowAddress","type":"uint256","indexed":false,"internalType":"uint256"}],"anonymous":false},{"type":"event","name":"ModifiedZKSyncClaimPaymentBatchSelector","inputs":[{"name":"newZKSyncEscrowClaimPaymentBatchSelector","type":"bytes4","indexed":false,"internalType":"bytes4"}],"anonymous":false},{"type":"event","name":"ModifiedZKSyncClaimPaymentSelector","inputs":[{"name":"newZKSyncEscrowClaimPaymentSelector","type":"bytes4","indexed":false,"internalType":"bytes4"}],"anonymous":false},{"type":"event","name":"ModifiedZKSyncEscrowAddress","inputs":[{"name":"newEscrowAddress","type":"address","indexed":false,"internalType":"address"}],"anonymous":false},{"type":"event","name":"OwnershipTransferred","inputs":[{"name":"previousOwner","type":"address","indexed":true,"internalType":"address"},{"name":"newOwner","type":"address","indexed":true,"internalType":"address"}],"anonymous":false},{"type":"event","name":"Transfer","inputs":[{"name":"orderId","type":"uint256","indexed":true,"internalType":"uint256"},{"name":"srcAddress","type":"address","indexed":false,"internalType":"address"},{"name":"destAddress","type":"address","indexed":false,"internalType":"address"},{"name":"amount","type":"uint256","indexed":false,"internalType":"uint256"},{"name":"chainId","type":"uint128","indexed":false,"internalType":"uint128"}],"anonymous":false},{"type":"event","name":"Upgraded","inputs":[{"name":"implementation","type":"address","indexed":true,"internalType":"address"}],"anonymous":false},{"type":"error","name":"AddressEmptyCode","inputs":[{"name":"target","type":"address","internalType":"address"}]},{"type":"error","name":"ERC1967InvalidImplementation","inputs":[{"name":"implementation","type":"address","internalType":"address"}]},{"type":"error","name":"ERC1967NonPayable","inputs":[]},{"type":"error","name":"FailedInnerCall","inputs":[]},{"type":"error","name":"InvalidInitialization","inputs":[]},{"type":"error","name":"NotInitializing","inputs":[]},{"type":"error","name":"OwnableInvalidOwner","inputs":[{"name":"owner","type":"address","internalType":"address"}]},{"type":"error","name":"OwnableUnauthorizedAccount","inputs":[{"name":"account","type":"address","internalType":"address"}]},{"type":"error","name":"UUPSUnauthorizedCallContext","inputs":[]},{"type":"error","name":"UUPSUnsupportedProxiableUUID","inputs":[{"name":"slot","type":"bytes32","internalType":"bytes32"}]}],"bytecode":{"object":"0x60a0604052306080523480156200001557600080fd5b506200002062000026565b620000da565b7ff0c57e16840df040f15088dc2f81fe391c3923bec73e23a9662efc9c229c6a00805468010000000000000000900460ff1615620000775760405163f92ee8a960e01b815260040160405180910390fd5b80546001600160401b0390811614620000d75780546001600160401b0319166001600160401b0390811782556040519081527fc7f505b2f371ae2175ee4913f4499e1f2633a7b5936321eed1cdaeb6115181d29060200160405180910390a15b50565b60805161255b620001046000396000818161171e01528181611747015261188d015261255b6000f3fe6080604052600436106101c25760003560e01c80638da5cb5b116100f7578063afc69b3c11610095578063d788f4c911610064578063d788f4c914610503578063f04193c814610519578063f12ba5c714610539578063f2fde38b1461055957600080fd5b8063afc69b3c14610490578063b2321572146104b0578063bf9551bf146104c3578063cb8a48c5146104e357600080fd5b8063a7139611116100d1578063a7139611146103f8578063abd43fdd14610418578063acfefa5214610432578063ad3cb1cc1461045257600080fd5b80638da5cb5b146103b05780638f74a02d146103c5578063942b8aea146103d857600080fd5b80635c2942b911610164578063715018a61161013e578063715018a61461034e57806376b5eddc1461036357806383c01387146103765780638c23704d1461039d57600080fd5b80635c2942b9146102c85780636835abf4146102db5780636af0abfa1461031657600080fd5b80633c5035dc116101a05780633c5035dc1461023e5780633c64f04b146102605780634f1ef286146102a057806352d1902d146102b357600080fd5b80631519e961146101c75780631f21f9af146101f0578063383bfee414610228575b600080fd5b3480156101d357600080fd5b506101dd60025481565b6040519081526020015b60405180910390f35b3480156101fc57600080fd5b50600154610210906001600160a01b031681565b6040516001600160a01b0390911681526020016101e7565b34801561023457600080fd5b506101dd60055481565b34801561024a57600080fd5b5061025e610259366004611cac565b610579565b005b34801561026c57600080fd5b5061029061027b366004611d46565b60006020819052908152604090205460ff1681565b60405190151581526020016101e7565b61025e6102ae366004611d75565b6107a6565b3480156102bf57600080fd5b506101dd6107c5565b61025e6102d6366004611e83565b6107e2565b3480156102e757600080fd5b506006546102fd90640100000000900460e01b81565b6040516001600160e01b031990911681526020016101e7565b34801561032257600080fd5b50600854610336906001600160801b031681565b6040516001600160801b0390911681526020016101e7565b34801561035a57600080fd5b5061025e610b90565b61025e610371366004611f1d565b610ba4565b34801561038257600080fd5b5060085461033690600160801b90046001600160801b031681565b61025e6103ab366004611f59565b610deb565b3480156103bc57600080fd5b50610210610fb2565b61025e6103d3366004611f9f565b610fe0565b3480156103e457600080fd5b50600354610210906001600160a01b031681565b34801561040457600080fd5b5061025e610413366004611fd4565b61120a565b34801561042457600080fd5b506006546102fd9060e01b81565b34801561043e57600080fd5b5061025e61044d366004611fd4565b611234565b34801561045e57600080fd5b50610483604051806040016040528060058152602001640352e302e360dc1b81525081565b6040516101e7919061203f565b34801561049c57600080fd5b5061025e6104ab366004612052565b611291565b61025e6104be36600461206d565b6112fd565b3480156104cf57600080fd5b5061025e6104de366004612052565b6115a7565b3480156104ef57600080fd5b5061025e6104fe366004611d46565b611605565b34801561050f57600080fd5b506101dd60045481565b34801561052557600080fd5b5061025e610534366004611d46565b611642565b34801561054557600080fd5b5061025e610554366004611d46565b61167f565b34801561056557600080fd5b5061025e610574366004611fd4565b6116bc565b7ff0c57e16840df040f15088dc2f81fe391c3923bec73e23a9662efc9c229c6a008054600160401b810460ff16159067ffffffffffffffff166000811580156105bf5750825b905060008267ffffffffffffffff1660011480156105dc5750303b155b9050811580156105ea575080155b156106085760405163f92ee8a960e01b815260040160405180910390fd5b845467ffffffffffffffff19166001178555831561063257845460ff60401b1916600160401b1785555b61063b336116fa565b61064361170b565b8d600760006101000a8154816001600160a01b0302191690836001600160a01b0316021790555089600660086101000a8154816001600160a01b0302191690836001600160a01b031602179055508c6004819055508b60058190555088600660006101000a81548163ffffffff021916908360e01c021790555087600660046101000a81548163ffffffff021916908360e01c021790555086600860006101000a8154816001600160801b0302191690836001600160801b0316021790555085600860106101000a8154816001600160801b0302191690836001600160801b031602179055508a600160006101000a8154816001600160a01b0302191690836001600160a01b03160217905550831561079657845460ff60401b19168555604051600181527fc7f505b2f371ae2175ee4913f4499e1f2633a7b5936321eed1cdaeb6115181d29060200160405180910390a15b5050505050505050505050505050565b6107ae611713565b6107b7826117b8565b6107c182826117c0565b5050565b60006107cf611882565b5060008051602061250683398151915290565b6107ea610fb2565b6001600160a01b0316336001600160a01b0316148061081357506001546001600160a01b031633145b6108385760405162461bcd60e51b815260040161082f90612116565b60405180910390fd5b8483146108575760405162461bcd60e51b815260040161082f9061215d565b8481146108765760405162461bcd60e51b815260040161082f9061215d565b600061088386600561219d565b61088e9060016121b4565b67ffffffffffffffff8111156108a6576108a6611d5f565b6040519080825280602002602001820160405280156108cf578160200160208202803683370190505b50905086869050816000815181106108e9576108e96121c7565b60200260200101818152505060005b63ffffffff8116871115610ab957600088888363ffffffff16818110610920576109206121c7565b905060200201359050600087878463ffffffff16818110610943576109436121c7565b90506020020160208101906109589190611fd4565b9050600086868563ffffffff16818110610974576109746121c7565b9050602002013590506109888383836118cb565b60006109958560056121dd565b6109a0906001612205565b9050836001600160801b0316868263ffffffff16815181106109c4576109c46121c7565b6020908102919091010152608084901c866109e0836001612205565b63ffffffff16815181106109f6576109f66121c7565b60209081029190910101526001600160a01b03831686610a17836002612205565b63ffffffff1681518110610a2d57610a2d6121c7565b60209081029190910101526001600160801b03821686610a4e836003612205565b63ffffffff1681518110610a6457610a646121c7565b6020908102919091010152608082901c86610a80836004612205565b63ffffffff1681518110610a9657610a966121c7565b602002602001018181525050505050508080610ab190612229565b9150506108f8565b50600754600254600554604051633e3aa6c560e01b81526001600160a01b0390931692633e3aa6c5923492610af292879060040161224c565b604080518083038185885af1158015610b0f573d6000803e3d6000fd5b50505050506040513d601f19601f82011682018060405250810190610b3491906122a1565b50506008546040517fb9492e7bf9b06708266caa2b61513011b6164e9a5613a98b4b28822330685b3691610b7f918a918a918a918a918a918a916001600160801b039091169061233e565b60405180910390a150505050505050565b610b98611967565b610ba26000611999565b565b610bac610fb2565b6001600160a01b0316336001600160a01b03161480610bd557506001546001600160a01b031633145b610bf15760405162461bcd60e51b815260040161082f90612116565b60003411610c525760405162461bcd60e51b815260206004820152602860248201527f496e76616c696420616d6f756e742c2073686f756c6420626520686967686572604482015267103a3430b710181760c11b606482015260840161082f565b600083833484604051602001610c6b9493929190612398565b60408051601f19818403018152918152815160209283012060008181529283905291205490915060ff1615610ce25760405162461bcd60e51b815260206004820152601b60248201527f5472616e7366657220616c72656164792070726f6365737365642e0000000000604482015260640161082f565b600081815260208190526040808220805460ff19166001179055516001600160a01b0385169034908381818185875af1925050503d8060008114610d42576040519150601f19603f3d011682016040523d82523d6000602084013e610d47565b606091505b5050905080610d8b5760405162461bcd60e51b815260206004820152601060248201526f2a3930b739b332b9103330b4b632b21760811b604482015260640161082f565b604080513381526001600160a01b038616602082015234818301526001600160801b0385166060820152905186917f518415589d99aa369fd185c0e5c8e121cc117d365eea9d4f322ffa352b82ff36919081900360800190a25050505050565b610df3610fb2565b6001600160a01b0316336001600160a01b03161480610e1c57506001546001600160a01b031633145b610e385760405162461bcd60e51b815260040161082f90612116565b610e43858585611a0a565b60065460408051602481018890526001600160a01b03878116604483015260648083018890528351808403909101815260849092018352602080830180516001600160e01b031660e087901b6001600160e01b031916179052600354845160008082529281019095529294600160401b900482169363eb67241993349316919086908990899084610ee4565b6060815260200190600190039081610ecf5790505b50336040518963ffffffff1660e01b8152600401610f0897969594939291906123db565b60206040518083038185885af1158015610f26573d6000803e3d6000fd5b50505050506040513d601f19601f82011682018060405250810190610f4b9190612487565b50600854604080516001600160a01b038816815260208101879052600160801b9092046001600160801b03169082015286907f9b37aa3b3ccd712d4f1f38e0d3633191b3279bc495a91348d5e6e6e862e08a7c9060600160405180910390a2505050505050565b7f9016d09d72d40fdae2fd8ceac6b6234c7706214fd39c1cd1e609a0528c199300546001600160a01b031690565b610fe8610fb2565b6001600160a01b0316336001600160a01b0316148061101157506001546001600160a01b031633145b61102d5760405162461bcd60e51b815260040161082f90612116565b6110388383836118cb565b60408051600580825260c082019092526000916020820160a080368337019050509050836001600160801b031681600081518110611078576110786121c7565b602002602001018181525050608084901c6001600160801b0316816001815181106110a5576110a56121c7565b602002602001018181525050826001600160a01b0316816002815181106110ce576110ce6121c7565b602002602001018181525050816001600160801b0316816003815181106110f7576110f76121c7565b602002602001018181525050608082901c6001600160801b031681600481518110611124576111246121c7565b602090810291909101015260075460025460048054604051633e3aa6c560e01b81526001600160a01b0390941693633e3aa6c593349361116893919288910161224c565b604080518083038185885af1158015611185573d6000803e3d6000fd5b50505050506040513d601f19601f820116820180604052508101906111aa91906122a1565b5050600854604080516001600160a01b0386168152602081018590526001600160801b039092169082015284907f9b37aa3b3ccd712d4f1f38e0d3633191b3279bc495a91348d5e6e6e862e08a7c9060600160405180910390a250505050565b611212611967565b600180546001600160a01b0319166001600160a01b0392909216919091179055565b61123c611967565b600380546001600160a01b0319166001600160a01b0383169081179091556040519081527f266bbe7a56974619c1a655bf40e2622705681de7ad5b9ad8f776b574816ef878906020015b60405180910390a150565b611299611967565b6006805467ffffffff00000000191664010000000060e084811c820292909217928390556040516001600160e01b03199190930490911b1681527f15b3668254acd82e4dfcf164d2fa3ccde6feddcd4d860ce5214a3f849a14ee1790602001611286565b611305610fb2565b6001600160a01b0316336001600160a01b0316148061132e57506001546001600160a01b031633145b61134a5760405162461bcd60e51b815260040161082f90612116565b8685146113695760405162461bcd60e51b815260040161082f9061215d565b8683146113885760405162461bcd60e51b815260040161082f9061215d565b60005b63ffffffff811688111561141e5761140c89898363ffffffff168181106113b4576113b46121c7565b9050602002013588888463ffffffff168181106113d3576113d36121c7565b90506020020160208101906113e89190611fd4565b87878563ffffffff16818110611400576114006121c7565b90506020020135611a0a565b8061141681612229565b91505061138b565b50600654604051600091640100000000900460e01b9061144c908b908b908b908b908b908b906024016124a0565b60408051601f198184030181529190526020810180516001600160e01b03166001600160e01b0319909316929092179091526006546003549192506001600160a01b03600160401b90910481169163eb672419913491166000858888836040519080825280602002602001820160405280156114dc57816020015b60608152602001906001900390816114c75790505b50336040518963ffffffff1660e01b815260040161150097969594939291906123db565b60206040518083038185885af115801561151e573d6000803e3d6000fd5b50505050506040513d601f19601f820116820180604052508101906115439190612487565b507fb9492e7bf9b06708266caa2b61513011b6164e9a5613a98b4b28822330685b36898989898989600860109054906101000a90046001600160801b0316604051611594979695949392919061233e565b60405180910390a1505050505050505050565b6115af611967565b6006805460e083811c63ffffffff19909216919091179182905560405191901b6001600160e01b03191681527fac25fa2892bb4bfc20f31e7dd94d1aed6c743ba4b9ea3987ecbdc546f96f8a7090602001611286565b61160d611967565b60058190556040518181527f8472b958091d499bf08adc8eadec9eadfc6f9f6c592220bb4b563c47c38f645b90602001611286565b61164a611967565b60028190556040518181527f770ea1f0ec3952d2a87b139d66a1ac5d469acba670449df142953a082c7e4e8090602001611286565b611687611967565b60048190556040518181527f531414f0fe764471786064a701ebc067e829c6ea0aa005fc180afb5c75d5e7d290602001611286565b6116c4611967565b6001600160a01b0381166116ee57604051631e4fbdf760e01b81526000600482015260240161082f565b6116f781611999565b50565b611702611a36565b6116f781611a7f565b610ba2611a36565b306001600160a01b037f000000000000000000000000000000000000000000000000000000000000000016148061179a57507f00000000000000000000000000000000000000000000000000000000000000006001600160a01b031661178e600080516020612506833981519152546001600160a01b031690565b6001600160a01b031614155b15610ba25760405163703e46dd60e11b815260040160405180910390fd5b6116f7611967565b816001600160a01b03166352d1902d6040518163ffffffff1660e01b8152600401602060405180830381865afa92505050801561181a575060408051601f3d908101601f1916820190925261181791810190612487565b60015b61184257604051634c9c8ce360e01b81526001600160a01b038316600482015260240161082f565b600080516020612506833981519152811461187357604051632a87526960e21b81526004810182905260240161082f565b61187d8383611a87565b505050565b306001600160a01b037f00000000000000000000000000000000000000000000000000000000000000001614610ba25760405163703e46dd60e11b815260040160405180910390fd5b6008546040516000916118f0918691869186916001600160801b031690602001612398565b60408051601f19818403018152918152815160209283012060008181529283905291205490915060ff1615156001146119615760405162461bcd60e51b81526020600482015260136024820152722a3930b739b332b9103737ba103337bab7321760691b604482015260640161082f565b50505050565b33611970610fb2565b6001600160a01b031614610ba25760405163118cdaa760e01b815233600482015260240161082f565b7f9016d09d72d40fdae2fd8ceac6b6234c7706214fd39c1cd1e609a0528c19930080546001600160a01b031981166001600160a01b03848116918217845560405192169182907f8be0079c531659141344cd1fd0a4f28419497f9722a3daafe3b4186f6b6457e090600090a3505050565b6008546040516000916118f091869186918691600160801b90046001600160801b031690602001612398565b7ff0c57e16840df040f15088dc2f81fe391c3923bec73e23a9662efc9c229c6a0054600160401b900460ff16610ba257604051631afcd79f60e31b815260040160405180910390fd5b6116c4611a36565b611a9082611add565b6040516001600160a01b038316907fbc7cd75a20ee27fd9adebab32041f755214dbc6bffa90cc0225b39da2e5c2d3b90600090a2805115611ad55761187d8282611b42565b6107c1611bba565b806001600160a01b03163b600003611b1357604051634c9c8ce360e01b81526001600160a01b038216600482015260240161082f565b60008051602061250683398151915280546001600160a01b0319166001600160a01b0392909216919091179055565b6060600080846001600160a01b031684604051611b5f91906124e9565b600060405180830381855af49150503d8060008114611b9a576040519150601f19603f3d011682016040523d82523d6000602084013e611b9f565b606091505b5091509150611baf858383611bd9565b925050505b92915050565b3415610ba25760405163b398979f60e01b815260040160405180910390fd5b606082611bee57611be982611c38565b611c31565b8151158015611c0557506001600160a01b0384163b155b15611c2e57604051639996b31560e01b81526001600160a01b038516600482015260240161082f565b50805b9392505050565b805115611c485780518082602001fd5b604051630a12f52160e11b815260040160405180910390fd5b80356001600160a01b0381168114611c7857600080fd5b919050565b80356001600160e01b031981168114611c7857600080fd5b80356001600160801b0381168114611c7857600080fd5b60008060008060008060008060006101208a8c031215611ccb57600080fd5b611cd48a611c61565b985060208a0135975060408a01359650611cf060608b01611c61565b9550611cfe60808b01611c61565b9450611d0c60a08b01611c7d565b9350611d1a60c08b01611c7d565b9250611d2860e08b01611c95565b9150611d376101008b01611c95565b90509295985092959850929598565b600060208284031215611d5857600080fd5b5035919050565b634e487b7160e01b600052604160045260246000fd5b60008060408385031215611d8857600080fd5b611d9183611c61565b9150602083013567ffffffffffffffff80821115611dae57600080fd5b818501915085601f830112611dc257600080fd5b813581811115611dd457611dd4611d5f565b604051601f8201601f19908116603f01168101908382118183101715611dfc57611dfc611d5f565b81604052828152886020848701011115611e1557600080fd5b8260208601602083013760006020848301015280955050505050509250929050565b60008083601f840112611e4957600080fd5b50813567ffffffffffffffff811115611e6157600080fd5b6020830191508360208260051b8501011115611e7c57600080fd5b9250929050565b60008060008060008060608789031215611e9c57600080fd5b863567ffffffffffffffff80821115611eb457600080fd5b611ec08a838b01611e37565b90985096506020890135915080821115611ed957600080fd5b611ee58a838b01611e37565b90965094506040890135915080821115611efe57600080fd5b50611f0b89828a01611e37565b979a9699509497509295939492505050565b600080600060608486031215611f3257600080fd5b83359250611f4260208501611c61565b9150611f5060408501611c95565b90509250925092565b600080600080600060a08688031215611f7157600080fd5b85359450611f8160208701611c61565b94979496505050506040830135926060810135926080909101359150565b600080600060608486031215611fb457600080fd5b83359250611fc460208501611c61565b9150604084013590509250925092565b600060208284031215611fe657600080fd5b611c3182611c61565b60005b8381101561200a578181015183820152602001611ff2565b50506000910152565b6000815180845261202b816020860160208601611fef565b601f01601f19169290920160200192915050565b602081526000611c316020830184612013565b60006020828403121561206457600080fd5b611c3182611c7d565b60008060008060008060008060a0898b03121561208957600080fd5b883567ffffffffffffffff808211156120a157600080fd5b6120ad8c838d01611e37565b909a50985060208b01359150808211156120c657600080fd5b6120d28c838d01611e37565b909850965060408b01359150808211156120eb57600080fd5b506120f88b828c01611e37565b999c989b509699959896976060870135966080013595509350505050565b60208082526027908201527f4f6e6c79204f776e6572206f72204d4d2063616e2063616c6c207468697320666040820152663ab731ba34b7b760c91b606082015260800190565b60208082526010908201526f24b73b30b634b2103632b733ba34399760811b604082015260600190565b634e487b7160e01b600052601160045260246000fd5b8082028115828204841417611bb457611bb4612187565b80820180821115611bb457611bb4612187565b634e487b7160e01b600052603260045260246000fd5b63ffffffff8181168382160280821691908281146121fd576121fd612187565b505092915050565b63ffffffff81811683821601908082111561222257612222612187565b5092915050565b600063ffffffff80831681810361224257612242612187565b6001019392505050565b6000606082018583526020858185015260606040850152818551808452608086019150828701935060005b8181101561229357845183529383019391830191600101612277565b509098975050505050505050565b600080604083850312156122b457600080fd5b505080516020909101519092909150565b81835260006001600160fb1b038311156122de57600080fd5b8260051b80836020870137939093016020019392505050565b8183526000602080850194508260005b85811015612333576001600160a01b0361232083611c61565b1687529582019590820190600101612307565b509495945050505050565b60808152600061235260808301898b6122c5565b828103602084015261236581888a6122f7565b9050828103604084015261237a8186886122c5565b9150506001600160801b038316606083015298975050505050505050565b93845260609290921b6bffffffffffffffffffffffff19166020840152603483015260801b6fffffffffffffffffffffffffffffffff1916605482015260640190565b60018060a01b038816815260006020888184015260e0604084015261240360e0840189612013565b87606085015286608085015283810360a08501528086518083528383019150838160051b84010184890160005b8381101561245e57601f1986840301855261244c838351612013565b94870194925090860190600101612430565b50506001600160a01b03881660c0880152945061247b9350505050565b98975050505050505050565b60006020828403121561249957600080fd5b5051919050565b6060815260006124b460608301888a6122c5565b82810360208401526124c78187896122f7565b905082810360408401526124dc8185876122c5565b9998505050505050505050565b600082516124fb818460208701611fef565b919091019291505056fe360894a13ba1a3210667c828492db98dca3e2076cc3735a920a3ca505d382bbca2646970667358221220406ec8a16313beb2925f5686d1a9ccbf12d9f30b3bc03b5f82b6975a89754a9b64736f6c63430008140033","linkReferences":{}},"methodIdentifiers":{"StarknetChainId()":"6af0abfa","StarknetEscrowAddress()":"1519e961","StarknetEscrowClaimPaymentBatchSelector()":"383bfee4","StarknetEscrowClaimPaymentSelector()":"d788f4c9","UPGRADE_INTERFACE_VERSION()":"ad3cb1cc","ZKSyncChainId()":"83c01387","ZKSyncEscrowAddress()":"942b8aea","ZKSyncEscrowClaimPaymentBatchSelector()":"6835abf4","ZKSyncEscrowClaimPaymentSelector()":"abd43fdd","claimPayment(uint256,address,uint256)":"8f74a02d","claimPaymentBatch(uint256[],address[],uint256[])":"5c2942b9","claimPaymentBatchZKSync(uint256[],address[],uint256[],uint256,uint256)":"b2321572","claimPaymentZKSync(uint256,address,uint256,uint256,uint256)":"8c23704d","initialize(address,uint256,uint256,address,address,bytes4,bytes4,uint128,uint128)":"3c5035dc","marketMaker()":"1f21f9af","owner()":"8da5cb5b","proxiableUUID()":"52d1902d","renounceOwnership()":"715018a6","setMMAddress(address)":"a7139611","setStarknetClaimPaymentBatchSelector(uint256)":"cb8a48c5","setStarknetClaimPaymentSelector(uint256)":"f12ba5c7","setStarknetEscrowAddress(uint256)":"f04193c8","setZKSyncEscrowAddress(address)":"acfefa52","setZKSyncEscrowClaimPaymentBatchSelector(bytes4)":"afc69b3c","setZKSyncEscrowClaimPaymentSelector(bytes4)":"bf9551bf","transfer(uint256,address,uint128)":"76b5eddc","transferOwnership(address)":"f2fde38b","transfers(bytes32)":"3c64f04b","upgradeToAndCall(address,bytes)":"4f1ef286"},"id":49}