{"abi":[{"type":"constructor","inputs":[],"stateMutability":"nonpayable"},{"type":"function","name":"StarknetEscrowAddress","inputs":[],"outputs":[{"name":"","type":"uint256","internalType":"uint256"}],"stateMutability":"view"},{"type":"function","name":"StarknetEscrowClaimPaymentSelector","inputs":[],"outputs":[{"name":"","type":"uint256","internalType":"uint256"}],"stateMutability":"view"},{"type":"function","name":"UPGRADE_INTERFACE_VERSION","inputs":[],"outputs":[{"name":"","type":"string","internalType":"string"}],"stateMutability":"view"},{"type":"function","name":"ZKSyncEscrowAddress","inputs":[],"outputs":[{"name":"","type":"address","internalType":"address"}],"stateMutability":"view"},{"type":"function","name":"claimPayment","inputs":[{"name":"orderId","type":"uint256","internalType":"uint256"},{"name":"destAddress","type":"uint256","internalType":"uint256"},{"name":"amount","type":"uint256","internalType":"uint256"}],"outputs":[],"stateMutability":"payable"},{"type":"function","name":"claimPaymentZKSync","inputs":[{"name":"orderId","type":"uint256","internalType":"uint256"},{"name":"destAddress","type":"uint256","internalType":"uint256"},{"name":"amount","type":"uint256","internalType":"uint256"},{"name":"gasLimit","type":"uint256","internalType":"uint256"},{"name":"gasPerPubdataByteLimit","type":"uint256","internalType":"uint256"}],"outputs":[],"stateMutability":"payable"},{"type":"function","name":"initialize","inputs":[{"name":"snMessaging","type":"address","internalType":"address"},{"name":"StarknetEscrowAddress_","type":"uint256","internalType":"uint256"},{"name":"StarknetEscrowClaimPaymentSelector_","type":"uint256","internalType":"uint256"},{"name":"marketMaker_","type":"address","internalType":"address"},{"name":"ZKSyncMailboxAddress","type":"address","internalType":"address"}],"outputs":[],"stateMutability":"nonpayable"},{"type":"function","name":"marketMaker","inputs":[],"outputs":[{"name":"","type":"address","internalType":"address"}],"stateMutability":"view"},{"type":"function","name":"owner","inputs":[],"outputs":[{"name":"","type":"address","internalType":"address"}],"stateMutability":"view"},{"type":"function","name":"proxiableUUID","inputs":[],"outputs":[{"name":"","type":"bytes32","internalType":"bytes32"}],"stateMutability":"view"},{"type":"function","name":"renounceOwnership","inputs":[],"outputs":[],"stateMutability":"nonpayable"},{"type":"function","name":"setMMAddress","inputs":[{"name":"newMMAddress","type":"address","internalType":"address"}],"outputs":[],"stateMutability":"nonpayable"},{"type":"function","name":"setStarknetClaimPaymentSelector","inputs":[{"name":"NewStarknetEscrowClaimPaymentSelector","type":"uint256","internalType":"uint256"}],"outputs":[],"stateMutability":"nonpayable"},{"type":"function","name":"setStarknetEscrowAddress","inputs":[{"name":"newStarknetEscrowAddress","type":"uint256","internalType":"uint256"}],"outputs":[],"stateMutability":"nonpayable"},{"type":"function","name":"setZKSyncEscrowAddress","inputs":[{"name":"newZKSyncEscrowAddress","type":"address","internalType":"address"}],"outputs":[],"stateMutability":"nonpayable"},{"type":"function","name":"transfer","inputs":[{"name":"orderId","type":"uint256","internalType":"uint256"},{"name":"destAddress","type":"uint256","internalType":"uint256"},{"name":"chainId","type":"uint8","internalType":"enum PaymentRegistry.Chain"}],"outputs":[],"stateMutability":"payable"},{"type":"function","name":"transferOwnership","inputs":[{"name":"newOwner","type":"address","internalType":"address"}],"outputs":[],"stateMutability":"nonpayable"},{"type":"function","name":"transfers","inputs":[{"name":"","type":"bytes32","internalType":"bytes32"}],"outputs":[{"name":"destAddress","type":"uint256","internalType":"uint256"},{"name":"amount","type":"uint256","internalType":"uint256"},{"name":"isUsed","type":"bool","internalType":"bool"},{"name":"chainId","type":"uint8","internalType":"enum PaymentRegistry.Chain"}],"stateMutability":"view"},{"type":"function","name":"upgradeToAndCall","inputs":[{"name":"newImplementation","type":"address","internalType":"address"},{"name":"data","type":"bytes","internalType":"bytes"}],"outputs":[],"stateMutability":"payable"},{"type":"event","name":"ClaimPayment","inputs":[{"name":"transferInfo","type":"tuple","indexed":false,"internalType":"struct PaymentRegistry.TransferInfo","components":[{"name":"destAddress","type":"uint256","internalType":"uint256"},{"name":"amount","type":"uint256","internalType":"uint256"},{"name":"isUsed","type":"bool","internalType":"bool"},{"name":"chainId","type":"uint8","internalType":"enum PaymentRegistry.Chain"}]}],"anonymous":false},{"type":"event","name":"Initialized","inputs":[{"name":"version","type":"uint64","indexed":false,"internalType":"uint64"}],"anonymous":false},{"type":"event","name":"ModifiedStarknetClaimPaymentSelector","inputs":[{"name":"newEscrowClaimPaymentSelector","type":"uint256","indexed":false,"internalType":"uint256"}],"anonymous":false},{"type":"event","name":"ModifiedStarknetEscrowAddress","inputs":[{"name":"newEscrowAddress","type":"uint256","indexed":false,"internalType":"uint256"}],"anonymous":false},{"type":"event","name":"ModifiedZKSyncEscrowAddress","inputs":[{"name":"newEscrowAddress","type":"address","indexed":false,"internalType":"address"}],"anonymous":false},{"type":"event","name":"OwnershipTransferred","inputs":[{"name":"previousOwner","type":"address","indexed":true,"internalType":"address"},{"name":"newOwner","type":"address","indexed":true,"internalType":"address"}],"anonymous":false},{"type":"event","name":"Transfer","inputs":[{"name":"orderId","type":"uint256","indexed":true,"internalType":"uint256"},{"name":"srcAddress","type":"address","indexed":false,"internalType":"address"},{"name":"transferInfo","type":"tuple","indexed":false,"internalType":"struct PaymentRegistry.TransferInfo","components":[{"name":"destAddress","type":"uint256","internalType":"uint256"},{"name":"amount","type":"uint256","internalType":"uint256"},{"name":"isUsed","type":"bool","internalType":"bool"},{"name":"chainId","type":"uint8","internalType":"enum PaymentRegistry.Chain"}]}],"anonymous":false},{"type":"event","name":"Upgraded","inputs":[{"name":"implementation","type":"address","indexed":true,"internalType":"address"}],"anonymous":false},{"type":"error","name":"AddressEmptyCode","inputs":[{"name":"target","type":"address","internalType":"address"}]},{"type":"error","name":"ERC1967InvalidImplementation","inputs":[{"name":"implementation","type":"address","internalType":"address"}]},{"type":"error","name":"ERC1967NonPayable","inputs":[]},{"type":"error","name":"FailedInnerCall","inputs":[]},{"type":"error","name":"InvalidInitialization","inputs":[]},{"type":"error","name":"NotInitializing","inputs":[]},{"type":"error","name":"OwnableInvalidOwner","inputs":[{"name":"owner","type":"address","internalType":"address"}]},{"type":"error","name":"OwnableUnauthorizedAccount","inputs":[{"name":"account","type":"address","internalType":"address"}]},{"type":"error","name":"UUPSUnauthorizedCallContext","inputs":[]},{"type":"error","name":"UUPSUnsupportedProxiableUUID","inputs":[{"name":"slot","type":"bytes32","internalType":"bytes32"}]}],"bytecode":{"object":"0x60a06040523060805234801561001457600080fd5b5061001d610022565b6100d4565b7ff0c57e16840df040f15088dc2f81fe391c3923bec73e23a9662efc9c229c6a00805468010000000000000000900460ff16156100725760405163f92ee8a960e01b815260040160405180910390fd5b80546001600160401b03908116146100d15780546001600160401b0319166001600160401b0390811782556040519081527fc7f505b2f371ae2175ee4913f4499e1f2633a7b5936321eed1cdaeb6115181d29060200160405180910390a15b50565b6080516118ba6100fd60003960008181610ea701528181610ed0015261101601526118ba6000f3fe6080604052600436106101145760003560e01c8063942b8aea116100a0578063d71b8af011610064578063d71b8af01461030a578063d788f4c91461031d578063f04193c814610333578063f12ba5c714610353578063f2fde38b1461037357600080fd5b8063942b8aea14610259578063a713961114610279578063acfefa5214610299578063ad3cb1cc146102b9578063c1f9789a146102f757600080fd5b80633c64f04b116100e75780633c64f04b146101af5780634f1ef2861461020757806352d1902d1461021a578063715018a61461022f5780638da5cb5b1461024457600080fd5b806303b54d52146101195780630b5e4f1a1461013b5780631519e9611461014e5780631f21f9af14610177575b600080fd5b34801561012557600080fd5b5061013961013436600461133e565b610393565b005b610139610149366004611395565b6104f6565b34801561015a57600080fd5b5061016460025481565b6040519081526020015b60405180910390f35b34801561018357600080fd5b50600154610197906001600160a01b031681565b6040516001600160a01b03909116815260200161016e565b3480156101bb57600080fd5b506101f76101ca3660046113d0565b60006020819052908152604090208054600182015460029092015490919060ff8082169161010090041684565b60405161016e9493929190611421565b610139610215366004611463565b610724565b34801561022657600080fd5b50610164610743565b34801561023b57600080fd5b50610139610760565b34801561025057600080fd5b50610197610774565b34801561026557600080fd5b50600354610197906001600160a01b031681565b34801561028557600080fd5b50610139610294366004611525565b6107a2565b3480156102a557600080fd5b506101396102b4366004611525565b6107cc565b3480156102c557600080fd5b506102ea604051806040016040528060058152602001640352e302e360dc1b81525081565b60405161016e9190611590565b6101396103053660046115a3565b610829565b6101396103183660046115cf565b610ab4565b34801561032957600080fd5b5061016460045481565b34801561033f57600080fd5b5061013961034e3660046113d0565b610dcb565b34801561035f57600080fd5b5061013961036e3660046113d0565b610e08565b34801561037f57600080fd5b5061013961038e366004611525565b610e45565b7ff0c57e16840df040f15088dc2f81fe391c3923bec73e23a9662efc9c229c6a008054600160401b810460ff16159067ffffffffffffffff166000811580156103d95750825b905060008267ffffffffffffffff1660011480156103f65750303b155b905081158015610404575080155b156104225760405163f92ee8a960e01b815260040160405180910390fd5b845467ffffffffffffffff19166001178555831561044c57845460ff60401b1916600160401b1785555b61045533610e83565b61045d610e94565b600680546001600160a01b03808d166001600160a01b0319928316179092556005805489841690831617905560028b905560048a905560018054928a169290911691909117905583156104ea57845460ff60401b19168555604051600181527fc7f505b2f371ae2175ee4913f4499e1f2633a7b5936321eed1cdaeb6115181d29060200160405180910390a15b50505050505050505050565b6104fe610774565b6001600160a01b0316336001600160a01b0316148061052757506001546001600160a01b031633145b61054c5760405162461bcd60e51b81526004016105439061160c565b60405180910390fd5b600085858560016040516020016105669493929190611653565b60408051601f198184030181529181528151602092830120600081815292839052912060028101549192509060ff1615156001146105dc5760405162461bcd60e51b81526020600482015260136024820152722a3930b739b332b9103737ba103337bab7321760691b6044820152606401610543565b8054600182015460408051602481018b905260448101939093526064808401929092528051808403909201825260849092018252602080820180516001600160e01b031663a516873960e01b9081179091526005546003548551600080825294810190965291946001600160a01b039182169363eb672419933493169186908c908c908461067a565b60608152602001906001900390816106655790505b50336040518963ffffffff1660e01b815260040161069e9796959493929190611698565b60206040518083038185885af11580156106bc573d6000803e3d6000fd5b50505050506040513d601f19601f820116820180604052508101906106e19190611744565b507ffa14b57aae01dabbdf4c90231f1f49bb52566fa986bb22b81214a82d0e8d973183604051610711919061178e565b60405180910390a1505050505050505050565b61072c610e9c565b61073582610f41565b61073f8282610f49565b5050565b600061074d61100b565b5060008051602061186583398151915290565b610768611054565b6107726000611086565b565b7f9016d09d72d40fdae2fd8ceac6b6234c7706214fd39c1cd1e609a0528c199300546001600160a01b031690565b6107aa611054565b600180546001600160a01b0319166001600160a01b0392909216919091179055565b6107d4611054565b600380546001600160a01b0319166001600160a01b0383169081179091556040519081527f266bbe7a56974619c1a655bf40e2622705681de7ad5b9ad8f776b574816ef878906020015b60405180910390a150565b610831610774565b6001600160a01b0316336001600160a01b0316148061085a57506001546001600160a01b031633145b6108765760405162461bcd60e51b81526004016105439061160c565b600083838360006040516020016108909493929190611653565b60408051601f198184030181529181528151602092830120600081815292839052912060028101549192509060ff1615156001146109065760405162461bcd60e51b81526020600482015260136024820152722a3930b739b332b9103737ba103337bab7321760691b6044820152606401610543565b60408051600580825260c082019092526000916020820160a080368337019050509050856001600160801b0316816000815181106109465761094661179c565b602002602001018181525050608086901c6001600160801b0316816001815181106109735761097361179c565b6020026020010181815250508160000154816002815181106109975761099761179c565b602002602001018181525050836001600160801b0316816003815181106109c0576109c061179c565b602002602001018181525050608084901c6001600160801b0316816004815181106109ed576109ed61179c565b602090810291909101015260065460025460048054604051633e3aa6c560e01b81526001600160a01b0390941693633e3aa6c5933493610a319391928891016117b2565b604080518083038185885af1158015610a4e573d6000803e3d6000fd5b50505050506040513d601f19601f82011682018060405250810190610a739190611807565b50507ffa14b57aae01dabbdf4c90231f1f49bb52566fa986bb22b81214a82d0e8d973182604051610aa4919061178e565b60405180910390a1505050505050565b610abc610774565b6001600160a01b0316336001600160a01b03161480610ae557506001546001600160a01b031633145b610b015760405162461bcd60e51b81526004016105439061160c565b81600003610b515760405162461bcd60e51b815260206004820152601c60248201527f496e76616c69642064657374696e6174696f6e20616464726573732e000000006044820152606401610543565b60003411610bb25760405162461bcd60e51b815260206004820152602860248201527f496e76616c696420616d6f756e742c2073686f756c6420626520686967686572604482015267103a3430b710181760c11b6064820152608401610543565b600083833484604051602001610bcb9493929190611653565b60408051601f19818403018152918152815160209283012060008181529283905291206002015490915060ff1615610c455760405162461bcd60e51b815260206004820152601b60248201527f5472616e7366657220616c72656164792070726f6365737365642e00000000006044820152606401610543565b6040518060800160405280848152602001348152602001600115158152602001836001811115610c7757610c776113e9565b90526000828152602081815260409182902083518155908301516001808301919091559183015160028201805491151560ff1983168117825560608601519394919261ff001990911661ffff199091161790610100908490811115610cde57610cde6113e9565b021790555050604051600091506001600160a01b0385169034908381818185875af1925050503d8060008114610d30576040519150601f19603f3d011682016040523d82523d6000602084013e610d35565b606091505b5050905080610d795760405162461bcd60e51b815260206004820152601060248201526f2a3930b739b332b9103330b4b632b21760811b6044820152606401610543565b847fa021626d9973eaecfbeb0e17352f56e3e9b32891f48c11cc1c2c248a2559f79a33600080868152602001908152602001600020604051610dbc92919061182b565b60405180910390a25050505050565b610dd3611054565b60028190556040518181527f770ea1f0ec3952d2a87b139d66a1ac5d469acba670449df142953a082c7e4e809060200161081e565b610e10611054565b60048190556040518181527f531414f0fe764471786064a701ebc067e829c6ea0aa005fc180afb5c75d5e7d29060200161081e565b610e4d611054565b6001600160a01b038116610e7757604051631e4fbdf760e01b815260006004820152602401610543565b610e8081611086565b50565b610e8b6110f7565b610e8081611140565b6107726110f7565b306001600160a01b037f0000000000000000000000000000000000000000000000000000000000000000161480610f2357507f00000000000000000000000000000000000000000000000000000000000000006001600160a01b0316610f17600080516020611865833981519152546001600160a01b031690565b6001600160a01b031614155b156107725760405163703e46dd60e11b815260040160405180910390fd5b610e80611054565b816001600160a01b03166352d1902d6040518163ffffffff1660e01b8152600401602060405180830381865afa925050508015610fa3575060408051601f3d908101601f19168201909252610fa091810190611744565b60015b610fcb57604051634c9c8ce360e01b81526001600160a01b0383166004820152602401610543565b6000805160206118658339815191528114610ffc57604051632a87526960e21b815260048101829052602401610543565b6110068383611148565b505050565b306001600160a01b037f000000000000000000000000000000000000000000000000000000000000000016146107725760405163703e46dd60e11b815260040160405180910390fd5b3361105d610774565b6001600160a01b0316146107725760405163118cdaa760e01b8152336004820152602401610543565b7f9016d09d72d40fdae2fd8ceac6b6234c7706214fd39c1cd1e609a0528c19930080546001600160a01b031981166001600160a01b03848116918217845560405192169182907f8be0079c531659141344cd1fd0a4f28419497f9722a3daafe3b4186f6b6457e090600090a3505050565b7ff0c57e16840df040f15088dc2f81fe391c3923bec73e23a9662efc9c229c6a0054600160401b900460ff1661077257604051631afcd79f60e31b815260040160405180910390fd5b610e4d6110f7565b6111518261119e565b6040516001600160a01b038316907fbc7cd75a20ee27fd9adebab32041f755214dbc6bffa90cc0225b39da2e5c2d3b90600090a2805115611196576110068282611203565b61073f61127b565b806001600160a01b03163b6000036111d457604051634c9c8ce360e01b81526001600160a01b0382166004820152602401610543565b60008051602061186583398151915280546001600160a01b0319166001600160a01b0392909216919091179055565b6060600080846001600160a01b0316846040516112209190611848565b600060405180830381855af49150503d806000811461125b576040519150601f19603f3d011682016040523d82523d6000602084013e611260565b606091505b509150915061127085838361129a565b925050505b92915050565b34156107725760405163b398979f60e01b815260040160405180910390fd5b6060826112af576112aa826112f9565b6112f2565b81511580156112c657506001600160a01b0384163b155b156112ef57604051639996b31560e01b81526001600160a01b0385166004820152602401610543565b50805b9392505050565b8051156113095780518082602001fd5b604051630a12f52160e11b815260040160405180910390fd5b80356001600160a01b038116811461133957600080fd5b919050565b600080600080600060a0868803121561135657600080fd5b61135f86611322565b9450602086013593506040860135925061137b60608701611322565b915061138960808701611322565b90509295509295909350565b600080600080600060a086880312156113ad57600080fd5b505083359560208501359550604085013594606081013594506080013592509050565b6000602082840312156113e257600080fd5b5035919050565b634e487b7160e01b600052602160045260246000fd5b6002811061141d57634e487b7160e01b600052602160045260246000fd5b9052565b8481526020810184905282151560408201526080810161144460608301846113ff565b95945050505050565b634e487b7160e01b600052604160045260246000fd5b6000806040838503121561147657600080fd5b61147f83611322565b9150602083013567ffffffffffffffff8082111561149c57600080fd5b818501915085601f8301126114b057600080fd5b8135818111156114c2576114c261144d565b604051601f8201601f19908116603f011681019083821181831017156114ea576114ea61144d565b8160405282815288602084870101111561150357600080fd5b8260208601602083013760006020848301015280955050505050509250929050565b60006020828403121561153757600080fd5b6112f282611322565b60005b8381101561155b578181015183820152602001611543565b50506000910152565b6000815180845261157c816020860160208601611540565b601f01601f19169290920160200192915050565b6020815260006112f26020830184611564565b6000806000606084860312156115b857600080fd5b505081359360208301359350604090920135919050565b6000806000606084860312156115e457600080fd5b833592506020840135915060408401356002811061160157600080fd5b809150509250925092565b60208082526027908201527f4f6e6c79204f776e6572206f72204d4d2063616e2063616c6c207468697320666040820152663ab731ba34b7b760c91b606082015260800190565b84815283602082015282604082015260006002831061168257634e487b7160e01b600052602160045260246000fd5b5060f89190911b60608201526061019392505050565b60018060a01b038816815260006020888184015260e060408401526116c060e0840189611564565b87606085015286608085015283810360a08501528086518083528383019150838160051b84010184890160005b8381101561171b57601f19868403018552611709838351611564565b948701949250908601906001016116ed565b50506001600160a01b03881660c088015294506117389350505050565b98975050505050505050565b60006020828403121561175657600080fd5b5051919050565b8054825260018101546020830152600281015460ff8116151560408401526110066060840160ff8360081c166113ff565b60808101611275828461175d565b634e487b7160e01b600052603260045260246000fd5b6000606082018583526020858185015260606040850152818551808452608086019150828701935060005b818110156117f9578451835293830193918301916001016117dd565b509098975050505050505050565b6000806040838503121561181a57600080fd5b505080516020909101519092909150565b6001600160a01b038316815260a081016112f2602083018461175d565b6000825161185a818460208701611540565b919091019291505056fe360894a13ba1a3210667c828492db98dca3e2076cc3735a920a3ca505d382bbca26469706673582212205650497c1c47e61f69b1b2641b596da321a6c987272e95d3305e223efd2c094264736f6c63430008140033","linkReferences":{}},"methodIdentifiers":{"StarknetEscrowAddress()":"1519e961","StarknetEscrowClaimPaymentSelector()":"d788f4c9","UPGRADE_INTERFACE_VERSION()":"ad3cb1cc","ZKSyncEscrowAddress()":"942b8aea","claimPayment(uint256,uint256,uint256)":"c1f9789a","claimPaymentZKSync(uint256,uint256,uint256,uint256,uint256)":"0b5e4f1a","initialize(address,uint256,uint256,address,address)":"03b54d52","marketMaker()":"1f21f9af","owner()":"8da5cb5b","proxiableUUID()":"52d1902d","renounceOwnership()":"715018a6","setMMAddress(address)":"a7139611","setStarknetClaimPaymentSelector(uint256)":"f12ba5c7","setStarknetEscrowAddress(uint256)":"f04193c8","setZKSyncEscrowAddress(address)":"acfefa52","transfer(uint256,uint256,uint8)":"d71b8af0","transferOwnership(address)":"f2fde38b","transfers(bytes32)":"3c64f04b","upgradeToAndCall(address,bytes)":"4f1ef286"},"id":49}