{
  "abi": [
    {
      "inputs": [
        {
          "internalType": "address",
          "name": "snMessaging",
          "type": "address"
        },
        {
          "internalType": "uint256",
          "name": "snEscrowAddress",
          "type": "uint256"
        },
        {
          "internalType": "uint256",
          "name": "snEscrowWithdrawSelector",
          "type": "uint256"
        }
      ],
      "stateMutability": "nonpayable",
      "type": "constructor"
    },
    {
      "anonymous": false,
      "inputs": [
        {
          "indexed": true,
          "internalType": "uint256",
          "name": "orderId",
          "type": "uint256"
        },
        {
          "indexed": false,
          "internalType": "address",
          "name": "srcAddress",
          "type": "address"
        },
        {
          "components": [
            {
              "internalType": "uint256",
              "name": "destAddress",
              "type": "uint256"
            },
            {
              "internalType": "uint256",
              "name": "amount",
              "type": "uint256"
            },
            {
              "internalType": "bool",
              "name": "isUsed",
              "type": "bool"
            }
          ],
          "indexed": false,
          "internalType": "struct PaymentRegistry.TransferInfo",
          "name": "transferInfo",
          "type": "tuple"
        }
      ],
      "name": "Transfer",
      "type": "event"
    },
    {
      "inputs": [
        {
          "internalType": "uint256",
          "name": "snEscrowAddress",
          "type": "uint256"
        }
      ],
      "name": "setEscrowAddress",
      "outputs": [],
      "stateMutability": "nonpayable",
      "type": "function"
    },
    {
      "inputs": [
        {
          "internalType": "uint256",
          "name": "snEscrowWithdrawSelector",
          "type": "uint256"
        }
      ],
      "name": "setEscrowWithdrawSelector",
      "outputs": [],
      "stateMutability": "nonpayable",
      "type": "function"
    },
    {
      "inputs": [
        {
          "internalType": "uint256",
          "name": "orderId",
          "type": "uint256"
        },
        {
          "internalType": "uint256",
          "name": "destAddress",
          "type": "uint256"
        },
        {
          "internalType": "uint256",
          "name": "amount",
          "type": "uint256"
        }
      ],
      "name": "transfer",
      "outputs": [],
      "stateMutability": "payable",
      "type": "function"
    },
    {
      "inputs": [
        {
          "internalType": "bytes32",
          "name": "",
          "type": "bytes32"
        }
      ],
      "name": "transfers",
      "outputs": [
        {
          "internalType": "uint256",
          "name": "destAddress",
          "type": "uint256"
        },
        {
          "internalType": "uint256",
          "name": "amount",
          "type": "uint256"
        },
        {
          "internalType": "bool",
          "name": "isUsed",
          "type": "bool"
        }
      ],
      "stateMutability": "view",
      "type": "function"
    },
    {
      "inputs": [
        {
          "internalType": "uint256",
          "name": "orderId",
          "type": "uint256"
        },
        {
          "internalType": "uint256",
          "name": "destAddress",
          "type": "uint256"
        },
        {
          "internalType": "uint256",
          "name": "amount",
          "type": "uint256"
        }
      ],
      "name": "withdraw",
      "outputs": [],
      "stateMutability": "payable",
      "type": "function"
    }
  ],
  "bytecode": {
    "object": "0x608060405234801561001057600080fd5b5060405161086b38038061086b83398101604081905261002f91610069565b60018054336001600160a01b031991821617909155600280549091166001600160a01b0394909416939093179092556003556004556100ac565b60008060006060848603121561007e57600080fd5b83516001600160a01b038116811461009557600080fd5b602085015160409095015190969495509392505050565b6107b0806100bb6000396000f3fe60806040526004361061004a5760003560e01c80633c64f04b1461004f5780633e95784a146100af57806390dd2627146100d15780639a63d92d146100e4578063a41fe49f14610104575b600080fd5b34801561005b57600080fd5b5061008e61006a366004610664565b60006020819052908152604090208054600182015460029092015490919060ff1683565b60408051938452602084019290925215159082015260600160405180910390f35b3480156100bb57600080fd5b506100cf6100ca366004610664565b610117565b005b6100cf6100df36600461067d565b61014f565b3480156100f057600080fd5b506100cf6100ff366004610664565b610450565b6100cf61011236600461067d565b61047f565b6001546001600160a01b0316331461014a5760405162461bcd60e51b8152600401610141906106a9565b60405180910390fd5b600455565b8160000361019f5760405162461bcd60e51b815260206004820152601c60248201527f496e76616c69642064657374696e6174696f6e20616464726573732e000000006044820152606401610141565b600081116102005760405162461bcd60e51b815260206004820152602860248201527f496e76616c696420616d6f756e742c2073686f756c6420626520686967686572604482015267103a3430b710181760c11b6064820152608401610141565b80341461025f5760405162461bcd60e51b815260206004820152602760248201527f496e76616c696420616d6f756e742c2073686f756c64206d61746368206d7367604482015266173b30b63ab29760c91b6064820152608401610141565b60408051602081018590529081018390526060810182905260009060800160408051601f19818403018152918152815160209283012060008181529283905291206002015490915060ff16156102f75760405162461bcd60e51b815260206004820152601b60248201527f5472616e7366657220616c72656164792070726f6365737365642e00000000006044820152606401610141565b604080516060810182528481526020808201858152600183850181815260008781529384905285842094518555915190840155516002909201805460ff19169215159290921790915590516001600160a01b0385169034908381818185875af1925050503d8060008114610387576040519150601f19603f3d011682016040523d82523d6000602084013e61038c565b606091505b50509050806103d05760405162461bcd60e51b815260206004820152601060248201526f2a3930b739b332b9103330b4b632b21760811b6044820152606401610141565b847fb2511a43843fb5ad643d84c36214ea6ac6368d0ba2f4714f59c2c36124e87e27336000808681526020019081526020016000206040516104419291906001600160a01b0392909216825280546020830152600181015460408301526002015460ff161515606082015260800190565b60405180910390a25050505050565b6001546001600160a01b0316331461047a5760405162461bcd60e51b8152600401610141906106a9565b600355565b60408051602081018590529081018390526060810182905260009060800160408051601f198184030181529181528151602092830120600081815292839052912060028101549192509060ff1615156001146105135760405162461bcd60e51b81526020600482015260136024820152722a3930b739b332b9103737ba103337bab7321760691b6044820152606401610141565b60408051600580825260c082019092526000916020820160a080368337019050509050858160008151811061054a5761054a6106eb565b60200260200101818152505060008160018151811061056b5761056b6106eb565b60200260200101818152505081600001548160028151811061058f5761058f6106eb565b6020026020010181815250508160010154816003815181106105b3576105b36106eb565b6020026020010181815250506000816004815181106105d4576105d46106eb565b602090810291909101015260025460035460048054604051633e3aa6c560e01b81526001600160a01b0390941693633e3aa6c5933493610618939192889101610701565b604080518083038185885af1158015610635573d6000803e3d6000fd5b50505050506040513d601f19601f8201168201806040525081019061065a9190610756565b5050505050505050565b60006020828403121561067657600080fd5b5035919050565b60008060006060848603121561069257600080fd5b505081359360208301359350604090920135919050565b60208082526022908201527f4f6e6c79206f776e65722063616e2063616c6c20746869732066756e6374696f604082015261371760f11b606082015260800190565b634e487b7160e01b600052603260045260246000fd5b6000606082018583526020858185015260606040850152818551808452608086019150828701935060005b818110156107485784518352938301939183019160010161072c565b509098975050505050505050565b6000806040838503121561076957600080fd5b50508051602090910151909290915056fea2646970667358221220d0a958d7f2408ff56a3d1eee1e6f811a3f920768f8ffe1cbd3b500c41920070764736f6c63430008150033",
    "linkReferences": {}
  },
  "methodIdentifiers": {
    "setEscrowAddress(uint256)": "9a63d92d",
    "setEscrowWithdrawSelector(uint256)": "3e95784a",
    "transfer(uint256,uint256,uint256)": "90dd2627",
    "transfers(bytes32)": "3c64f04b",
    "withdraw(uint256,uint256,uint256)": "a41fe49f"
  },
  "id": 24
}