{"abi":[{"type":"constructor","inputs":[],"stateMutability":"nonpayable"},{"type":"function","name":"StarknetEscrowAddress","inputs":[],"outputs":[{"name":"","type":"uint256","internalType":"uint256"}],"stateMutability":"view"},{"type":"function","name":"StarknetEscrowClaimPaymentSelector","inputs":[],"outputs":[{"name":"","type":"uint256","internalType":"uint256"}],"stateMutability":"view"},{"type":"function","name":"UPGRADE_INTERFACE_VERSION","inputs":[],"outputs":[{"name":"","type":"string","internalType":"string"}],"stateMutability":"view"},{"type":"function","name":"ZKSyncEscrowAddress","inputs":[],"outputs":[{"name":"","type":"address","internalType":"address"}],"stateMutability":"view"},{"type":"function","name":"claimPayment","inputs":[{"name":"orderId","type":"uint256","internalType":"uint256"},{"name":"destAddress","type":"address","internalType":"address"},{"name":"amount","type":"uint256","internalType":"uint256"}],"outputs":[],"stateMutability":"payable"},{"type":"function","name":"claimPaymentZKSync","inputs":[{"name":"orderId","type":"uint256","internalType":"uint256"},{"name":"destAddress","type":"address","internalType":"address"},{"name":"amount","type":"uint256","internalType":"uint256"},{"name":"gasLimit","type":"uint256","internalType":"uint256"},{"name":"gasPerPubdataByteLimit","type":"uint256","internalType":"uint256"}],"outputs":[],"stateMutability":"payable"},{"type":"function","name":"initialize","inputs":[{"name":"snMessaging","type":"address","internalType":"address"},{"name":"StarknetEscrowAddress_","type":"uint256","internalType":"uint256"},{"name":"StarknetEscrowClaimPaymentSelector_","type":"uint256","internalType":"uint256"},{"name":"marketMaker_","type":"address","internalType":"address"},{"name":"ZKSyncDiamondProxyAddress","type":"address","internalType":"address"}],"outputs":[],"stateMutability":"nonpayable"},{"type":"function","name":"marketMaker","inputs":[],"outputs":[{"name":"","type":"address","internalType":"address"}],"stateMutability":"view"},{"type":"function","name":"owner","inputs":[],"outputs":[{"name":"","type":"address","internalType":"address"}],"stateMutability":"view"},{"type":"function","name":"proxiableUUID","inputs":[],"outputs":[{"name":"","type":"bytes32","internalType":"bytes32"}],"stateMutability":"view"},{"type":"function","name":"renounceOwnership","inputs":[],"outputs":[],"stateMutability":"nonpayable"},{"type":"function","name":"setMMAddress","inputs":[{"name":"newMMAddress","type":"address","internalType":"address"}],"outputs":[],"stateMutability":"nonpayable"},{"type":"function","name":"setStarknetClaimPaymentSelector","inputs":[{"name":"NewStarknetEscrowClaimPaymentSelector","type":"uint256","internalType":"uint256"}],"outputs":[],"stateMutability":"nonpayable"},{"type":"function","name":"setStarknetEscrowAddress","inputs":[{"name":"newStarknetEscrowAddress","type":"uint256","internalType":"uint256"}],"outputs":[],"stateMutability":"nonpayable"},{"type":"function","name":"setZKSyncEscrowAddress","inputs":[{"name":"newZKSyncEscrowAddress","type":"address","internalType":"address"}],"outputs":[],"stateMutability":"nonpayable"},{"type":"function","name":"transfer","inputs":[{"name":"orderId","type":"uint256","internalType":"uint256"},{"name":"destAddress","type":"address","internalType":"address"},{"name":"chainId","type":"uint8","internalType":"enum PaymentRegistry.Chain"}],"outputs":[],"stateMutability":"payable"},{"type":"function","name":"transferOwnership","inputs":[{"name":"newOwner","type":"address","internalType":"address"}],"outputs":[],"stateMutability":"nonpayable"},{"type":"function","name":"transfers","inputs":[{"name":"","type":"bytes32","internalType":"bytes32"}],"outputs":[{"name":"","type":"bool","internalType":"bool"}],"stateMutability":"view"},{"type":"function","name":"upgradeToAndCall","inputs":[{"name":"newImplementation","type":"address","internalType":"address"},{"name":"data","type":"bytes","internalType":"bytes"}],"outputs":[],"stateMutability":"payable"},{"type":"event","name":"ClaimPayment","inputs":[{"name":"orderId","type":"uint256","indexed":true,"internalType":"uint256"},{"name":"destAddress","type":"address","indexed":false,"internalType":"address"},{"name":"amount","type":"uint256","indexed":false,"internalType":"uint256"},{"name":"chainId","type":"uint8","indexed":false,"internalType":"enum PaymentRegistry.Chain"}],"anonymous":false},{"type":"event","name":"Initialized","inputs":[{"name":"version","type":"uint64","indexed":false,"internalType":"uint64"}],"anonymous":false},{"type":"event","name":"ModifiedStarknetClaimPaymentSelector","inputs":[{"name":"newEscrowClaimPaymentSelector","type":"uint256","indexed":false,"internalType":"uint256"}],"anonymous":false},{"type":"event","name":"ModifiedStarknetEscrowAddress","inputs":[{"name":"newEscrowAddress","type":"uint256","indexed":false,"internalType":"uint256"}],"anonymous":false},{"type":"event","name":"ModifiedZKSyncEscrowAddress","inputs":[{"name":"newEscrowAddress","type":"address","indexed":false,"internalType":"address"}],"anonymous":false},{"type":"event","name":"OwnershipTransferred","inputs":[{"name":"previousOwner","type":"address","indexed":true,"internalType":"address"},{"name":"newOwner","type":"address","indexed":true,"internalType":"address"}],"anonymous":false},{"type":"event","name":"Transfer","inputs":[{"name":"orderId","type":"uint256","indexed":true,"internalType":"uint256"},{"name":"srcAddress","type":"address","indexed":false,"internalType":"address"},{"name":"destAddress","type":"address","indexed":false,"internalType":"address"},{"name":"amount","type":"uint256","indexed":false,"internalType":"uint256"},{"name":"chainId","type":"uint8","indexed":false,"internalType":"enum PaymentRegistry.Chain"}],"anonymous":false},{"type":"event","name":"Upgraded","inputs":[{"name":"implementation","type":"address","indexed":true,"internalType":"address"}],"anonymous":false},{"type":"error","name":"AddressEmptyCode","inputs":[{"name":"target","type":"address","internalType":"address"}]},{"type":"error","name":"ERC1967InvalidImplementation","inputs":[{"name":"implementation","type":"address","internalType":"address"}]},{"type":"error","name":"ERC1967NonPayable","inputs":[]},{"type":"error","name":"FailedInnerCall","inputs":[]},{"type":"error","name":"InvalidInitialization","inputs":[]},{"type":"error","name":"NotInitializing","inputs":[]},{"type":"error","name":"OwnableInvalidOwner","inputs":[{"name":"owner","type":"address","internalType":"address"}]},{"type":"error","name":"OwnableUnauthorizedAccount","inputs":[{"name":"account","type":"address","internalType":"address"}]},{"type":"error","name":"UUPSUnauthorizedCallContext","inputs":[]},{"type":"error","name":"UUPSUnsupportedProxiableUUID","inputs":[{"name":"slot","type":"bytes32","internalType":"bytes32"}]}],"bytecode":{"object":"0x60a06040523060805234801561001457600080fd5b5061001d610022565b6100d4565b7ff0c57e16840df040f15088dc2f81fe391c3923bec73e23a9662efc9c229c6a00805468010000000000000000900460ff16156100725760405163f92ee8a960e01b815260040160405180910390fd5b80546001600160401b03908116146100d15780546001600160401b0319166001600160401b0390811782556040519081527fc7f505b2f371ae2175ee4913f4499e1f2633a7b5936321eed1cdaeb6115181d29060200160405180910390a15b50565b60805161178c6100fd60003960008181610d9401528181610dbd0152610f03015261178c6000f3fe6080604052600436106101145760003560e01c80638da5cb5b116100a0578063ad3cb1cc11610064578063ad3cb1cc146102c7578063d788f4c914610305578063f04193c81461031b578063f12ba5c71461033b578063f2fde38b1461035b57600080fd5b80638da5cb5b1461023f5780638f74a02d14610254578063942b8aea14610267578063a713961114610287578063acfefa52146102a757600080fd5b80633c64f04b116100e75780633c64f04b146101af5780634f1ef286146101ef57806352d1902d14610202578063715018a6146102175780638c23704d1461022c57600080fd5b806303b54d52146101195780631519e9611461013b5780631f21f9af146101645780632eec3f611461019c575b600080fd5b34801561012557600080fd5b50610139610134366004611229565b61037b565b005b34801561014757600080fd5b5061015160025481565b6040519081526020015b60405180910390f35b34801561017057600080fd5b50600154610184906001600160a01b031681565b6040516001600160a01b03909116815260200161015b565b6101396101aa366004611280565b6104de565b3480156101bb57600080fd5b506101df6101ca3660046112c4565b60006020819052908152604090205460ff1681565b604051901515815260200161015b565b6101396101fd3660046112f3565b610713565b34801561020e57600080fd5b50610151610732565b34801561022357600080fd5b5061013961074f565b61013961023a3660046113b5565b610763565b34801561024b57600080fd5b50610184610982565b6101396102623660046113fb565b6109b0565b34801561027357600080fd5b50600354610184906001600160a01b031681565b34801561029357600080fd5b506101396102a2366004611430565b610c31565b3480156102b357600080fd5b506101396102c2366004611430565b610c5b565b3480156102d357600080fd5b506102f8604051806040016040528060058152602001640352e302e360dc1b81525081565b60405161015b919061149b565b34801561031157600080fd5b5061015160045481565b34801561032757600080fd5b506101396103363660046112c4565b610cb8565b34801561034757600080fd5b506101396103563660046112c4565b610cf5565b34801561036757600080fd5b50610139610376366004611430565b610d32565b7ff0c57e16840df040f15088dc2f81fe391c3923bec73e23a9662efc9c229c6a008054600160401b810460ff16159067ffffffffffffffff166000811580156103c15750825b905060008267ffffffffffffffff1660011480156103de5750303b155b9050811580156103ec575080155b1561040a5760405163f92ee8a960e01b815260040160405180910390fd5b845467ffffffffffffffff19166001178555831561043457845460ff60401b1916600160401b1785555b61043d33610d70565b610445610d81565b600680546001600160a01b03808d166001600160a01b0319928316179092556005805489841690831617905560028b905560048a905560018054928a169290911691909117905583156104d257845460ff60401b19168555604051600181527fc7f505b2f371ae2175ee4913f4499e1f2633a7b5936321eed1cdaeb6115181d29060200160405180910390a15b50505050505050505050565b6104e6610982565b6001600160a01b0316336001600160a01b0316148061050f57506001546001600160a01b031633145b6105345760405162461bcd60e51b815260040161052b906114ae565b60405180910390fd5b600034116105955760405162461bcd60e51b815260206004820152602860248201527f496e76616c696420616d6f756e742c2073686f756c6420626520686967686572604482015267103a3430b710181760c11b606482015260840161052b565b6000838334846040516020016105ae94939291906114f5565b60408051601f19818403018152918152815160209283012060008181529283905291205490915060ff16156106255760405162461bcd60e51b815260206004820152601b60248201527f5472616e7366657220616c72656164792070726f6365737365642e0000000000604482015260640161052b565b600081815260208190526040808220805460ff19166001179055516001600160a01b0385169034908381818185875af1925050503d8060008114610685576040519150601f19603f3d011682016040523d82523d6000602084013e61068a565b606091505b50509050806106ce5760405162461bcd60e51b815260206004820152601060248201526f2a3930b739b332b9103330b4b632b21760811b604482015260640161052b565b847f654aae100fb14e43680702ed3c320359a36b215789b65278e6579800f85a11ad33863487604051610704949392919061156e565b60405180910390a25050505050565b61071b610d89565b61072482610e2e565b61072e8282610e36565b5050565b600061073c610ef8565b5060008051602061173783398151915290565b610757610f41565b6107616000610f73565b565b61076b610982565b6001600160a01b0316336001600160a01b0316148061079457506001546001600160a01b031633145b6107b05760405162461bcd60e51b815260040161052b906114ae565b600085858560016040516020016107ca94939291906114f5565b60408051601f19818403018152918152815160209283012060008181529283905291205490915060ff16151560011461083b5760405162461bcd60e51b81526020600482015260136024820152722a3930b739b332b9103737ba103337bab7321760691b604482015260640161052b565b60408051602481018890526001600160a01b03878116604483015260648083018890528351808403909101815260849092018352602080830180516001600160e01b031663a516873960e01b9081179091526005546003548651600080825294810190975291959084169363eb6724199334939091169186908b908b90846108d3565b60608152602001906001900390816108be5790505b50336040518963ffffffff1660e01b81526004016108f7979695949392919061159a565b60206040518083038185885af1158015610915573d6000803e3d6000fd5b50505050506040513d601f19601f8201168201806040525081019061093a9190611646565b50877f430185562025d6b7f5ef53b1c20a7cba42b5b5b2946c61a59572fb23b747aee5888860016040516109709392919061165f565b60405180910390a25050505050505050565b7f9016d09d72d40fdae2fd8ceac6b6234c7706214fd39c1cd1e609a0528c199300546001600160a01b031690565b6109b8610982565b6001600160a01b0316336001600160a01b031614806109e157506001546001600160a01b031633145b6109fd5760405162461bcd60e51b815260040161052b906114ae565b60008383836000604051602001610a1794939291906114f5565b60408051601f19818403018152918152815160209283012060008181529283905291205490915060ff161515600114610a885760405162461bcd60e51b81526020600482015260136024820152722a3930b739b332b9103737ba103337bab7321760691b604482015260640161052b565b60408051600580825260c082019092526000916020820160a080368337019050509050846001600160801b031681600081518110610ac857610ac861168b565b602002602001018181525050608085901c6001600160801b031681600181518110610af557610af561168b565b602002602001018181525050836001600160a01b031681600281518110610b1e57610b1e61168b565b602002602001018181525050826001600160801b031681600381518110610b4757610b4761168b565b602002602001018181525050608083901c6001600160801b031681600481518110610b7457610b7461168b565b602090810291909101015260065460025460048054604051633e3aa6c560e01b81526001600160a01b0390941693633e3aa6c5933493610bb89391928891016116a1565b604080518083038185885af1158015610bd5573d6000803e3d6000fd5b50505050506040513d601f19601f82011682018060405250810190610bfa91906116f6565b5050847f430185562025d6b7f5ef53b1c20a7cba42b5b5b2946c61a59572fb23b747aee5858560006040516107049392919061165f565b610c39610f41565b600180546001600160a01b0319166001600160a01b0392909216919091179055565b610c63610f41565b600380546001600160a01b0319166001600160a01b0383169081179091556040519081527f266bbe7a56974619c1a655bf40e2622705681de7ad5b9ad8f776b574816ef878906020015b60405180910390a150565b610cc0610f41565b60028190556040518181527f770ea1f0ec3952d2a87b139d66a1ac5d469acba670449df142953a082c7e4e8090602001610cad565b610cfd610f41565b60048190556040518181527f531414f0fe764471786064a701ebc067e829c6ea0aa005fc180afb5c75d5e7d290602001610cad565b610d3a610f41565b6001600160a01b038116610d6457604051631e4fbdf760e01b81526000600482015260240161052b565b610d6d81610f73565b50565b610d78610fe4565b610d6d8161102d565b610761610fe4565b306001600160a01b037f0000000000000000000000000000000000000000000000000000000000000000161480610e1057507f00000000000000000000000000000000000000000000000000000000000000006001600160a01b0316610e04600080516020611737833981519152546001600160a01b031690565b6001600160a01b031614155b156107615760405163703e46dd60e11b815260040160405180910390fd5b610d6d610f41565b816001600160a01b03166352d1902d6040518163ffffffff1660e01b8152600401602060405180830381865afa925050508015610e90575060408051601f3d908101601f19168201909252610e8d91810190611646565b60015b610eb857604051634c9c8ce360e01b81526001600160a01b038316600482015260240161052b565b6000805160206117378339815191528114610ee957604051632a87526960e21b81526004810182905260240161052b565b610ef38383611035565b505050565b306001600160a01b037f000000000000000000000000000000000000000000000000000000000000000016146107615760405163703e46dd60e11b815260040160405180910390fd5b33610f4a610982565b6001600160a01b0316146107615760405163118cdaa760e01b815233600482015260240161052b565b7f9016d09d72d40fdae2fd8ceac6b6234c7706214fd39c1cd1e609a0528c19930080546001600160a01b031981166001600160a01b03848116918217845560405192169182907f8be0079c531659141344cd1fd0a4f28419497f9722a3daafe3b4186f6b6457e090600090a3505050565b7ff0c57e16840df040f15088dc2f81fe391c3923bec73e23a9662efc9c229c6a0054600160401b900460ff1661076157604051631afcd79f60e31b815260040160405180910390fd5b610d3a610fe4565b61103e8261108b565b6040516001600160a01b038316907fbc7cd75a20ee27fd9adebab32041f755214dbc6bffa90cc0225b39da2e5c2d3b90600090a280511561108357610ef382826110f0565b61072e611166565b806001600160a01b03163b6000036110c157604051634c9c8ce360e01b81526001600160a01b038216600482015260240161052b565b60008051602061173783398151915280546001600160a01b0319166001600160a01b0392909216919091179055565b6060600080846001600160a01b03168460405161110d919061171a565b600060405180830381855af49150503d8060008114611148576040519150601f19603f3d011682016040523d82523d6000602084013e61114d565b606091505b509150915061115d858383611185565b95945050505050565b34156107615760405163b398979f60e01b815260040160405180910390fd5b60608261119a57611195826111e4565b6111dd565b81511580156111b157506001600160a01b0384163b155b156111da57604051639996b31560e01b81526001600160a01b038516600482015260240161052b565b50805b9392505050565b8051156111f45780518082602001fd5b604051630a12f52160e11b815260040160405180910390fd5b80356001600160a01b038116811461122457600080fd5b919050565b600080600080600060a0868803121561124157600080fd5b61124a8661120d565b945060208601359350604086013592506112666060870161120d565b91506112746080870161120d565b90509295509295909350565b60008060006060848603121561129557600080fd5b833592506112a56020850161120d565b91506040840135600281106112b957600080fd5b809150509250925092565b6000602082840312156112d657600080fd5b5035919050565b634e487b7160e01b600052604160045260246000fd5b6000806040838503121561130657600080fd5b61130f8361120d565b9150602083013567ffffffffffffffff8082111561132c57600080fd5b818501915085601f83011261134057600080fd5b813581811115611352576113526112dd565b604051601f8201601f19908116603f0116810190838211818310171561137a5761137a6112dd565b8160405282815288602084870101111561139357600080fd5b8260208601602083013760006020848301015280955050505050509250929050565b600080600080600060a086880312156113cd57600080fd5b853594506113dd6020870161120d565b94979496505050506040830135926060810135926080909101359150565b60008060006060848603121561141057600080fd5b833592506114206020850161120d565b9150604084013590509250925092565b60006020828403121561144257600080fd5b6111dd8261120d565b60005b8381101561146657818101518382015260200161144e565b50506000910152565b6000815180845261148781602086016020860161144b565b601f01601f19169290920160200192915050565b6020815260006111dd602083018461146f565b60208082526027908201527f4f6e6c79204f776e6572206f72204d4d2063616e2063616c6c207468697320666040820152663ab731ba34b7b760c91b606082015260800190565b8481526bffffffffffffffffffffffff198460601b16602082015282603482015260006002831061153657634e487b7160e01b600052602160045260246000fd5b5060f89190911b60548201526055019392505050565b6002811061156a57634e487b7160e01b600052602160045260246000fd5b9052565b6001600160a01b03858116825284166020820152604081018390526080810161115d606083018461154c565b60018060a01b038816815260006020888184015260e060408401526115c260e084018961146f565b87606085015286608085015283810360a08501528086518083528383019150838160051b84010184890160005b8381101561161d57601f1986840301855261160b83835161146f565b948701949250908601906001016115ef565b50506001600160a01b03881660c0880152945061163a9350505050565b98975050505050505050565b60006020828403121561165857600080fd5b5051919050565b6001600160a01b03841681526020810183905260608101611683604083018461154c565b949350505050565b634e487b7160e01b600052603260045260246000fd5b6000606082018583526020858185015260606040850152818551808452608086019150828701935060005b818110156116e8578451835293830193918301916001016116cc565b509098975050505050505050565b6000806040838503121561170957600080fd5b505080516020909101519092909150565b6000825161172c81846020870161144b565b919091019291505056fe360894a13ba1a3210667c828492db98dca3e2076cc3735a920a3ca505d382bbca2646970667358221220bc170fa2ac0b11436eefb9a4fac863d3aa74bf9ac7167541ae19906b421fdf1064736f6c63430008140033","linkReferences":{}},"methodIdentifiers":{"StarknetEscrowAddress()":"1519e961","StarknetEscrowClaimPaymentSelector()":"d788f4c9","UPGRADE_INTERFACE_VERSION()":"ad3cb1cc","ZKSyncEscrowAddress()":"942b8aea","claimPayment(uint256,address,uint256)":"8f74a02d","claimPaymentZKSync(uint256,address,uint256,uint256,uint256)":"8c23704d","initialize(address,uint256,uint256,address,address)":"03b54d52","marketMaker()":"1f21f9af","owner()":"8da5cb5b","proxiableUUID()":"52d1902d","renounceOwnership()":"715018a6","setMMAddress(address)":"a7139611","setStarknetClaimPaymentSelector(uint256)":"f12ba5c7","setStarknetEscrowAddress(uint256)":"f04193c8","setZKSyncEscrowAddress(address)":"acfefa52","transfer(uint256,address,uint8)":"2eec3f61","transferOwnership(address)":"f2fde38b","transfers(bytes32)":"3c64f04b","upgradeToAndCall(address,bytes)":"4f1ef286"},"id":49}