{"abi":[{"type":"constructor","inputs":[],"stateMutability":"nonpayable"},{"type":"function","name":"UPGRADE_INTERFACE_VERSION","inputs":[],"outputs":[{"name":"","type":"string","internalType":"string"}],"stateMutability":"view"},{"type":"function","name":"claimPayment","inputs":[{"name":"orderId","type":"uint256","internalType":"uint256"},{"name":"destAddress","type":"uint256","internalType":"uint256"},{"name":"amount","type":"uint256","internalType":"uint256"}],"outputs":[],"stateMutability":"payable"},{"type":"function","name":"getMMAddress","inputs":[],"outputs":[{"name":"","type":"address","internalType":"address"}],"stateMutability":"view"},{"type":"function","name":"getOwner","inputs":[],"outputs":[{"name":"","type":"address","internalType":"address"}],"stateMutability":"view"},{"type":"function","name":"initialize","inputs":[{"name":"snMessaging","type":"address","internalType":"address"},{"name":"snEscrowAddress","type":"uint256","internalType":"uint256"},{"name":"snEscrowClaimPaymentSelector","type":"uint256","internalType":"uint256"},{"name":"marketMaker","type":"address","internalType":"address"}],"outputs":[],"stateMutability":"nonpayable"},{"type":"function","name":"owner","inputs":[],"outputs":[{"name":"","type":"address","internalType":"address"}],"stateMutability":"view"},{"type":"function","name":"proxiableUUID","inputs":[],"outputs":[{"name":"","type":"bytes32","internalType":"bytes32"}],"stateMutability":"view"},{"type":"function","name":"renounceOwnership","inputs":[],"outputs":[],"stateMutability":"nonpayable"},{"type":"function","name":"setEscrowAddress","inputs":[{"name":"snEscrowAddress","type":"uint256","internalType":"uint256"}],"outputs":[],"stateMutability":"nonpayable"},{"type":"function","name":"setEscrowClaimPaymentSelector","inputs":[{"name":"snEscrowClaimPaymentSelector","type":"uint256","internalType":"uint256"}],"outputs":[],"stateMutability":"nonpayable"},{"type":"function","name":"setMMAddress","inputs":[{"name":"newMMAddress","type":"address","internalType":"address"}],"outputs":[],"stateMutability":"nonpayable"},{"type":"function","name":"transfer","inputs":[{"name":"orderId","type":"uint256","internalType":"uint256"},{"name":"destAddress","type":"uint256","internalType":"uint256"},{"name":"amount","type":"uint256","internalType":"uint256"}],"outputs":[],"stateMutability":"payable"},{"type":"function","name":"transferOwnership","inputs":[{"name":"newOwner","type":"address","internalType":"address"}],"outputs":[],"stateMutability":"nonpayable"},{"type":"function","name":"transfers","inputs":[{"name":"","type":"bytes32","internalType":"bytes32"}],"outputs":[{"name":"destAddress","type":"uint256","internalType":"uint256"},{"name":"amount","type":"uint256","internalType":"uint256"},{"name":"isUsed","type":"bool","internalType":"bool"}],"stateMutability":"view"},{"type":"function","name":"upgradeToAndCall","inputs":[{"name":"newImplementation","type":"address","internalType":"address"},{"name":"data","type":"bytes","internalType":"bytes"}],"outputs":[],"stateMutability":"payable"},{"type":"event","name":"Initialized","inputs":[{"name":"version","type":"uint64","indexed":false,"internalType":"uint64"}],"anonymous":false},{"type":"event","name":"ModifiedEscrowAddress","inputs":[{"name":"newEscrowAddress","type":"uint256","indexed":false,"internalType":"uint256"}],"anonymous":false},{"type":"event","name":"ModifiedEscrowClaimPaymentSelector","inputs":[{"name":"newEscrowClaimPaymentSelector","type":"uint256","indexed":false,"internalType":"uint256"}],"anonymous":false},{"type":"event","name":"OwnershipTransferred","inputs":[{"name":"previousOwner","type":"address","indexed":true,"internalType":"address"},{"name":"newOwner","type":"address","indexed":true,"internalType":"address"}],"anonymous":false},{"type":"event","name":"Transfer","inputs":[{"name":"orderId","type":"uint256","indexed":true,"internalType":"uint256"},{"name":"srcAddress","type":"address","indexed":false,"internalType":"address"},{"name":"transferInfo","type":"tuple","indexed":false,"internalType":"struct PaymentRegistry.TransferInfo","components":[{"name":"destAddress","type":"uint256","internalType":"uint256"},{"name":"amount","type":"uint256","internalType":"uint256"},{"name":"isUsed","type":"bool","internalType":"bool"}]}],"anonymous":false},{"type":"event","name":"Upgraded","inputs":[{"name":"implementation","type":"address","indexed":true,"internalType":"address"}],"anonymous":false},{"type":"error","name":"AddressEmptyCode","inputs":[{"name":"target","type":"address","internalType":"address"}]},{"type":"error","name":"ERC1967InvalidImplementation","inputs":[{"name":"implementation","type":"address","internalType":"address"}]},{"type":"error","name":"ERC1967NonPayable","inputs":[]},{"type":"error","name":"FailedInnerCall","inputs":[]},{"type":"error","name":"InvalidInitialization","inputs":[]},{"type":"error","name":"NotInitializing","inputs":[]},{"type":"error","name":"OwnableInvalidOwner","inputs":[{"name":"owner","type":"address","internalType":"address"}]},{"type":"error","name":"OwnableUnauthorizedAccount","inputs":[{"name":"account","type":"address","internalType":"address"}]},{"type":"error","name":"UUPSUnauthorizedCallContext","inputs":[]},{"type":"error","name":"UUPSUnsupportedProxiableUUID","inputs":[{"name":"slot","type":"bytes32","internalType":"bytes32"}]}],"bytecode":{"object":"0x60a06040523060805234801561001457600080fd5b5061001d610022565b6100d4565b7ff0c57e16840df040f15088dc2f81fe391c3923bec73e23a9662efc9c229c6a00805468010000000000000000900460ff16156100725760405163f92ee8a960e01b815260040160405180910390fd5b80546001600160401b03908116146100d15780546001600160401b0319166001600160401b0390811782556040519081527fc7f505b2f371ae2175ee4913f4499e1f2633a7b5936321eed1cdaeb6115181d29060200160405180910390a15b50565b60805161136a6100fd60003960008181610bb601528181610bdf0152610d25015261136a6000f3fe6080604052600436106100e85760003560e01c806390dd26271161008a578063ad3cb1cc11610059578063ad3cb1cc14610270578063bd7fece8146102ae578063c1f9789a146102cc578063f2fde38b146102df57600080fd5b806390dd2627146101fd5780639a63d92d146102105780639e3d87cd14610230578063a71396111461025057600080fd5b806352d1902d116100c657806352d1902d14610183578063715018a6146101a6578063893d20e8146101bb5780638da5cb5b146101e857600080fd5b8063168ef81b146100ed5780633c64f04b1461010f5780634f1ef28614610170575b600080fd5b3480156100f957600080fd5b5061010d610108366004611016565b6102ff565b005b34801561011b57600080fd5b5061014e61012a366004611016565b60006020819052908152604090208054600182015460029092015490919060ff1683565b6040805193845260208401929092521515908201526060015b60405180910390f35b61010d61017e366004611061565b610343565b34801561018f57600080fd5b50610198610362565b604051908152602001610167565b3480156101b257600080fd5b5061010d61037f565b3480156101c757600080fd5b506101d0610393565b6040516001600160a01b039091168152602001610167565b3480156101f457600080fd5b506101d06103a2565b61010d61020b366004611123565b6103d0565b34801561021c57600080fd5b5061010d61022b366004611016565b610727565b34801561023c57600080fd5b5061010d61024b36600461114f565b610764565b34801561025c57600080fd5b5061010d61026b366004611195565b6108b9565b34801561027c57600080fd5b506102a1604051806040016040528060058152602001640352e302e360dc1b81525081565b60405161016791906111d4565b3480156102ba57600080fd5b506001546001600160a01b03166101d0565b61010d6102da366004611123565b6108e3565b3480156102eb57600080fd5b5061010d6102fa366004611195565b610b3b565b610307610b79565b60048190556040518181527faca2d8ea9dacad0d5bd0699c117f504f833b7f2b08363ccb88c4611f17bb6f0b906020015b60405180910390a150565b61034b610bab565b61035482610c50565b61035e8282610c58565b5050565b600061036c610d1a565b5060008051602061131583398151915290565b610387610b79565b6103916000610d63565b565b600061039d6103a2565b905090565b7f9016d09d72d40fdae2fd8ceac6b6234c7706214fd39c1cd1e609a0528c199300546001600160a01b031690565b6103d86103a2565b6001600160a01b0316336001600160a01b0316148061040157506001546001600160a01b031633145b6104265760405162461bcd60e51b815260040161041d90611207565b60405180910390fd5b816000036104765760405162461bcd60e51b815260206004820152601c60248201527f496e76616c69642064657374696e6174696f6e20616464726573732e00000000604482015260640161041d565b600081116104d75760405162461bcd60e51b815260206004820152602860248201527f496e76616c696420616d6f756e742c2073686f756c6420626520686967686572604482015267103a3430b710181760c11b606482015260840161041d565b8034146105365760405162461bcd60e51b815260206004820152602760248201527f496e76616c696420616d6f756e742c2073686f756c64206d61746368206d7367604482015266173b30b63ab29760c91b606482015260840161041d565b60408051602081018590529081018390526060810182905260009060800160408051601f19818403018152918152815160209283012060008181529283905291206002015490915060ff16156105ce5760405162461bcd60e51b815260206004820152601b60248201527f5472616e7366657220616c72656164792070726f6365737365642e0000000000604482015260640161041d565b604080516060810182528481526020808201858152600183850181815260008781529384905285842094518555915190840155516002909201805460ff19169215159290921790915590516001600160a01b0385169034908381818185875af1925050503d806000811461065e576040519150601f19603f3d011682016040523d82523d6000602084013e610663565b606091505b50509050806106a75760405162461bcd60e51b815260206004820152601060248201526f2a3930b739b332b9103330b4b632b21760811b604482015260640161041d565b847fb2511a43843fb5ad643d84c36214ea6ac6368d0ba2f4714f59c2c36124e87e27336000808681526020019081526020016000206040516107189291906001600160a01b0392909216825280546020830152600181015460408301526002015460ff161515606082015260800190565b60405180910390a25050505050565b61072f610b79565b60038190556040518181527f037d258885f813f6f9a1239ba1e37c7619b400cdab6899abeacd56c24ed7471b90602001610338565b7ff0c57e16840df040f15088dc2f81fe391c3923bec73e23a9662efc9c229c6a008054600160401b810460ff16159067ffffffffffffffff166000811580156107aa5750825b905060008267ffffffffffffffff1660011480156107c75750303b155b9050811580156107d5575080155b156107f35760405163f92ee8a960e01b815260040160405180910390fd5b845467ffffffffffffffff19166001178555831561081d57845460ff60401b1916600160401b1785555b61082633610dd4565b61082e610de5565b600280546001600160a01b03808c166001600160a01b03199283161790925560038a90556004899055600180549289169290911691909117905583156108ae57845460ff60401b19168555604051600181527fc7f505b2f371ae2175ee4913f4499e1f2633a7b5936321eed1cdaeb6115181d29060200160405180910390a15b505050505050505050565b6108c1610b79565b600180546001600160a01b0319166001600160a01b0392909216919091179055565b6108eb6103a2565b6001600160a01b0316336001600160a01b0316148061091457506001546001600160a01b031633145b6109305760405162461bcd60e51b815260040161041d90611207565b60408051602081018590529081018390526060810182905260009060800160408051601f198184030181529181528151602092830120600081815292839052912060028101549192509060ff1615156001146109c45760405162461bcd60e51b81526020600482015260136024820152722a3930b739b332b9103737ba103337bab7321760691b604482015260640161041d565b60408051600580825260c082019092526000916020820160a080368337019050509050856001600160801b031681600081518110610a0457610a0461124e565b602002602001018181525050608086901c6001600160801b031681600181518110610a3157610a3161124e565b602002602001018181525050816000015481600281518110610a5557610a5561124e565b602002602001018181525050836001600160801b031681600381518110610a7e57610a7e61124e565b602002602001018181525050608084901c6001600160801b031681600481518110610aab57610aab61124e565b602090810291909101015260025460035460048054604051633e3aa6c560e01b81526001600160a01b0390941693633e3aa6c5933493610aef939192889101611264565b604080518083038185885af1158015610b0c573d6000803e3d6000fd5b50505050506040513d601f19601f82011682018060405250810190610b3191906112bb565b5050505050505050565b610b43610b79565b6001600160a01b038116610b6d57604051631e4fbdf760e01b81526000600482015260240161041d565b610b7681610d63565b50565b33610b826103a2565b6001600160a01b0316146103915760405163118cdaa760e01b815233600482015260240161041d565b306001600160a01b037f0000000000000000000000000000000000000000000000000000000000000000161480610c3257507f00000000000000000000000000000000000000000000000000000000000000006001600160a01b0316610c26600080516020611315833981519152546001600160a01b031690565b6001600160a01b031614155b156103915760405163703e46dd60e11b815260040160405180910390fd5b610b76610b79565b816001600160a01b03166352d1902d6040518163ffffffff1660e01b8152600401602060405180830381865afa925050508015610cb2575060408051601f3d908101601f19168201909252610caf918101906112df565b60015b610cda57604051634c9c8ce360e01b81526001600160a01b038316600482015260240161041d565b6000805160206113158339815191528114610d0b57604051632a87526960e21b81526004810182905260240161041d565b610d158383610ded565b505050565b306001600160a01b037f000000000000000000000000000000000000000000000000000000000000000016146103915760405163703e46dd60e11b815260040160405180910390fd5b7f9016d09d72d40fdae2fd8ceac6b6234c7706214fd39c1cd1e609a0528c19930080546001600160a01b031981166001600160a01b03848116918217845560405192169182907f8be0079c531659141344cd1fd0a4f28419497f9722a3daafe3b4186f6b6457e090600090a3505050565b610ddc610e43565b610b7681610e8c565b610391610e43565b610df682610e94565b6040516001600160a01b038316907fbc7cd75a20ee27fd9adebab32041f755214dbc6bffa90cc0225b39da2e5c2d3b90600090a2805115610e3b57610d158282610ef9565b61035e610f6f565b7ff0c57e16840df040f15088dc2f81fe391c3923bec73e23a9662efc9c229c6a0054600160401b900460ff1661039157604051631afcd79f60e31b815260040160405180910390fd5b610b43610e43565b806001600160a01b03163b600003610eca57604051634c9c8ce360e01b81526001600160a01b038216600482015260240161041d565b60008051602061131583398151915280546001600160a01b0319166001600160a01b0392909216919091179055565b6060600080846001600160a01b031684604051610f1691906112f8565b600060405180830381855af49150503d8060008114610f51576040519150601f19603f3d011682016040523d82523d6000602084013e610f56565b606091505b5091509150610f66858383610f8e565b95945050505050565b34156103915760405163b398979f60e01b815260040160405180910390fd5b606082610fa357610f9e82610fed565b610fe6565b8151158015610fba57506001600160a01b0384163b155b15610fe357604051639996b31560e01b81526001600160a01b038516600482015260240161041d565b50805b9392505050565b805115610ffd5780518082602001fd5b604051630a12f52160e11b815260040160405180910390fd5b60006020828403121561102857600080fd5b5035919050565b80356001600160a01b038116811461104657600080fd5b919050565b634e487b7160e01b600052604160045260246000fd5b6000806040838503121561107457600080fd5b61107d8361102f565b9150602083013567ffffffffffffffff8082111561109a57600080fd5b818501915085601f8301126110ae57600080fd5b8135818111156110c0576110c061104b565b604051601f8201601f19908116603f011681019083821181831017156110e8576110e861104b565b8160405282815288602084870101111561110157600080fd5b8260208601602083013760006020848301015280955050505050509250929050565b60008060006060848603121561113857600080fd5b505081359360208301359350604090920135919050565b6000806000806080858703121561116557600080fd5b61116e8561102f565b9350602085013592506040850135915061118a6060860161102f565b905092959194509250565b6000602082840312156111a757600080fd5b610fe68261102f565b60005b838110156111cb5781810151838201526020016111b3565b50506000910152565b60208152600082518060208401526111f38160408501602087016111b0565b601f01601f19169190910160400192915050565b60208082526027908201527f4f6e6c79204f776e6572206f72204d4d2063616e2063616c6c207468697320666040820152663ab731ba34b7b760c91b606082015260800190565b634e487b7160e01b600052603260045260246000fd5b60006060820185835260208560208501526060604085015281855180845260808601915060208701935060005b818110156112ad57845183529383019391830191600101611291565b509098975050505050505050565b600080604083850312156112ce57600080fd5b505080516020909101519092909150565b6000602082840312156112f157600080fd5b5051919050565b6000825161130a8184602087016111b0565b919091019291505056fe360894a13ba1a3210667c828492db98dca3e2076cc3735a920a3ca505d382bbca2646970667358221220967ff5440f9befbc92e3516e3f111dc3f93d9c1d6dcfb956068c925d8e1cc0b264736f6c63430008180033","linkReferences":{}},"methodIdentifiers":{"UPGRADE_INTERFACE_VERSION()":"ad3cb1cc","claimPayment(uint256,uint256,uint256)":"c1f9789a","getMMAddress()":"bd7fece8","getOwner()":"893d20e8","initialize(address,uint256,uint256,address)":"9e3d87cd","owner()":"8da5cb5b","proxiableUUID()":"52d1902d","renounceOwnership()":"715018a6","setEscrowAddress(uint256)":"9a63d92d","setEscrowClaimPaymentSelector(uint256)":"168ef81b","setMMAddress(address)":"a7139611","transfer(uint256,uint256,uint256)":"90dd2627","transferOwnership(address)":"f2fde38b","transfers(bytes32)":"3c64f04b","upgradeToAndCall(address,bytes)":"4f1ef286"},"id":37}