{
  "abi": [
    {
      "anonymous": false,
      "inputs": [
        {
          "indexed": true,
          "internalType": "uint256",
          "name": "orderId",
          "type": "uint256"
        },
        {
          "indexed": false,
          "internalType": "address",
          "name": "srcAddress",
          "type": "address"
        },
        {
          "components": [
            {
              "internalType": "uint256",
              "name": "destAddress",
              "type": "uint256"
            },
            {
              "internalType": "uint256",
              "name": "amount",
              "type": "uint256"
            },
            {
              "internalType": "bool",
              "name": "isUsed",
              "type": "bool"
            }
          ],
          "indexed": false,
          "internalType": "struct YABTransfer.TransferInfo",
          "name": "transferInfo",
          "type": "tuple"
        }
      ],
      "name": "Transfer",
      "type": "event"
    },
    {
      "inputs": [
        {
          "internalType": "uint256",
          "name": "orderId",
          "type": "uint256"
        },
        {
          "internalType": "uint256",
          "name": "destAddress",
          "type": "uint256"
        },
        {
          "internalType": "uint256",
          "name": "amount",
          "type": "uint256"
        }
      ],
      "name": "transfer",
      "outputs": [],
      "stateMutability": "payable",
      "type": "function"
    },
    {
      "inputs": [
        {
          "internalType": "uint256",
          "name": "",
          "type": "uint256"
        }
      ],
      "name": "transfers",
      "outputs": [
        {
          "internalType": "uint256",
          "name": "destAddress",
          "type": "uint256"
        },
        {
          "internalType": "uint256",
          "name": "amount",
          "type": "uint256"
        },
        {
          "internalType": "bool",
          "name": "isUsed",
          "type": "bool"
        }
      ],
      "stateMutability": "view",
      "type": "function"
    }
  ],
  "bytecode": {
    "object": "0x608060405234801561001057600080fd5b506103ed806100206000396000f3fe6080604052600436106100295760003560e01c806390dd26271461002e5780639377d71114610043575b600080fd5b61004161003c366004610372565b6100a3565b005b34801561004f57600080fd5b5061008261005e36600461039e565b60006020819052908152604090208054600182015460029092015490919060ff1683565b60408051938452602084019290925215159082015260600160405180910390f35b816000036100f85760405162461bcd60e51b815260206004820152601c60248201527f496e76616c69642064657374696e6174696f6e20616464726573732e0000000060448201526064015b60405180910390fd5b600081116101595760405162461bcd60e51b815260206004820152602860248201527f496e76616c696420616d6f756e742c2073686f756c6420626520686967686572604482015267103a3430b710181760c11b60648201526084016100ef565b8034146101b85760405162461bcd60e51b815260206004820152602760248201527f496e76616c696420616d6f756e742c2073686f756c64206d61746368206d7367604482015266173b30b63ab29760c91b60648201526084016100ef565b60008381526020819052604090206002015460ff161561021a5760405162461bcd60e51b815260206004820152601b60248201527f5472616e7366657220616c72656164792070726f6365737365642e000000000060448201526064016100ef565b604080516060810182528381526020808201848152600183850181815260008981529384905285842094518555915190840155516002909201805460ff19169215159290921790915590516001600160a01b0384169034908381818185875af1925050503d80600081146102aa576040519150601f19603f3d011682016040523d82523d6000602084013e6102af565b606091505b50509050806102f35760405162461bcd60e51b815260206004820152601060248201526f2a3930b739b332b9103330b4b632b21760811b60448201526064016100ef565b837fb2511a43843fb5ad643d84c36214ea6ac6368d0ba2f4714f59c2c36124e87e27336000808881526020019081526020016000206040516103649291906001600160a01b0392909216825280546020830152600181015460408301526002015460ff161515606082015260800190565b60405180910390a250505050565b60008060006060848603121561038757600080fd5b505081359360208301359350604090920135919050565b6000602082840312156103b057600080fd5b503591905056fea2646970667358221220990615ab1729dc1baf8436923bb696069d9a39442bc0306bb092d8e1c56ab61f64736f6c63430008160033",
    "linkReferences": {}
  },
  "methodIdentifiers": {
    "transfer(uint256,uint256,uint256)": "90dd2627",
    "transfers(uint256)": "9377d711"
  },
  "id": 15
}