{
  "abi": [
    {
      "anonymous": false,
      "inputs": [
        {
          "indexed": true,
          "internalType": "uint256",
          "name": "orderId",
          "type": "uint256"
        },
        {
          "indexed": false,
          "internalType": "address",
          "name": "srcAddress",
          "type": "address"
        },
        {
          "components": [
            {
              "internalType": "uint256",
              "name": "destAddress",
              "type": "uint256"
            },
            {
              "internalType": "uint128",
              "name": "amount",
              "type": "uint128"
            },
            {
              "internalType": "bool",
              "name": "isUsed",
              "type": "bool"
            }
          ],
          "indexed": false,
          "internalType": "struct YABTransfer.TransferInfo",
          "name": "transferInfo",
          "type": "tuple"
        }
      ],
      "name": "Transfer",
      "type": "event"
    },
    {
      "inputs": [
        {
          "internalType": "uint256",
          "name": "orderId",
          "type": "uint256"
        },
        {
          "internalType": "uint256",
          "name": "destAddress",
          "type": "uint256"
        },
        {
          "internalType": "uint128",
          "name": "amount",
          "type": "uint128"
        }
      ],
      "name": "transfer",
      "outputs": [],
      "stateMutability": "payable",
      "type": "function"
    },
    {
      "inputs": [
        {
          "internalType": "uint256",
          "name": "",
          "type": "uint256"
        }
      ],
      "name": "transfers",
      "outputs": [
        {
          "internalType": "uint256",
          "name": "destAddress",
          "type": "uint256"
        },
        {
          "internalType": "uint128",
          "name": "amount",
          "type": "uint128"
        },
        {
          "internalType": "bool",
          "name": "isUsed",
          "type": "bool"
        }
      ],
      "stateMutability": "view",
      "type": "function"
    }
  ],
  "bytecode": {
    "object": "0x608060405234801561001057600080fd5b50610448806100206000396000f3fe6080604052600436106100295760003560e01c80639377d7111461002e578063c6a70771146100a0575b600080fd5b34801561003a57600080fd5b506100776100493660046103b4565b600060208190529081526040902080546001909101546001600160801b03811690600160801b900460ff1683565b604080519384526001600160801b03909216602084015215159082015260600160405180910390f35b6100b36100ae3660046103cd565b6100b5565b005b8160000361010a5760405162461bcd60e51b815260206004820152601c60248201527f496e76616c69642064657374696e6174696f6e20616464726573732e0000000060448201526064015b60405180910390fd5b6000816001600160801b0316116101745760405162461bcd60e51b815260206004820152602860248201527f496e76616c696420616d6f756e742c2073686f756c6420626520686967686572604482015267103a3430b710181760c11b6064820152608401610101565b806001600160801b031634146101dc5760405162461bcd60e51b815260206004820152602760248201527f496e76616c696420616d6f756e742c2073686f756c64206d61746368206d7367604482015266173b30b63ab29760c91b6064820152608401610101565b600083815260208190526040902060010154600160801b900460ff16156102455760405162461bcd60e51b815260206004820152601b60248201527f5472616e7366657220616c72656164792070726f6365737365642e00000000006044820152606401610101565b604080516060810182528381526001600160801b038084166020808401918252600184860181815260008a8152928390528683209551865592519401805492511515600160801b0270ffffffffffffffffffffffffffffffffff19909316949093169390931717905590516001600160a01b03841690349060006040518083038185875af1925050503d80600081146102fa576040519150601f19603f3d011682016040523d82523d6000602084013e6102ff565b606091505b50509050806103435760405162461bcd60e51b815260206004820152601060248201526f2a3930b739b332b9103330b4b632b21760811b6044820152606401610101565b600084815260208181526040918290208251338152815492810192909252600101546001600160801b03811682840152608090811c60ff1615156060830152915186927fb7f73134c5c0034e5f6afde723791fa0fb664755cbb6c48a6e7741c26221cc59928290030190a250505050565b6000602082840312156103c657600080fd5b5035919050565b6000806000606084860312156103e257600080fd5b833592506020840135915060408401356001600160801b038116811461040757600080fd5b80915050925092509256fea264697066735822122096de8383954c0e22a5754e3e07887ed220adfe96f34ff8c8a4afb6537868ce6164736f6c63430008150033",
    "linkReferences": {}
  },
  "methodIdentifiers": {
    "transfer(uint256,uint256,uint128)": "c6a70771",
    "transfers(uint256)": "9377d711"
  },
  "id": 15
}